S3150000000000300020110400005904000061040000C3
S315000000106104000061040000610400006104000046
S315000000206104000061040000610400006104000036
S315000000306104000061040000610400002F7C0000E0
S315000000402F7C00002F7C00002F7C00002F7C0000FE
S315000000502F7C00002F7C00002F7C00002F7C0000EE
S315000000602F7C00002F7C00002F7C00002F7C0000DE
S315000000702F7C00002F7C00002F7C00002F7C0000CE
S315000000802F7C00002F7C00002F7C00002F7C0000BE
S315000000902F7C00002F7C00002F7C00002F7C0000AE
S315000000A02F7C00002F7C00002F7C00002F7C00009E
S315000000B02F7C00002F7C00002F7C00002F7C00008E
S31500000400FFFFFFFFFFFFFFFFFFFFFFFF7EFFFFFF77
S31500000410EFF3088080F30988EFF314800224204369
S3150000042080F31488BFF36F8F00F00EF880F308880E
S31500000430704700000348854607F0FEFA004800476B
S31500000440830F000000300020014880470148004724
S31500000450630400003504000010B500F030FD10BD47
S31500000460704768486849886000206849086068489D
S31500000470806B1F21490208436549886301200004F7
S3150000048063494031486062484068012109040843D5
S315000004905F4948605F480068012189048843490034
S315000004A008435C4908605A48406801214906884368
S315000004B049100843564948605748806857490840DC
S315000004C0554988600846C068544908405249C86082
S315000004D05348007AF3210840022108435049087224
S315000004E00846407865210840252108434C49487054
S315000004F080204C4908709A20494908700846C078FF
S31500000500C006C00EC870032008710020487100BFE5
S3150000051043488079102108400028F9D100BF40489F
S3150000052080790C2108400828F9D140203C494871BF
S3150000053000BF3B4880790C2108400828F9D100BF4C
S3150000054037488079402108400028F9D01A203449DC
S31500000550087000BF324880790C2108400C28F9D178
S31500000560704710B5304802F099F9002801D000BF55
S31500000570FEE729484038006901210906884307211A
S315000005800902084324494039086128484079E02196
S3150000059008402649487108460079F8210840234951
S315000005A0087123480078DC2108405021084320497F
S315000005B0087008464078DC210840402108431C4961
S315000005C0487008468078E62108401949887000205E
S315000005D01849087010480069012109068843072157
S315000005E0090208430C49086113480321090240180F
S315000005F04068FF21090488430F4903221202891823
S31500000600486010BD0000000000ED00E000810440DD
S31500000610008004400070044040900440FFF8FFFE54
S315000006200040064000500640888B000000F007405E
S3150000063000D0074000E0074000E100E0F8B50746BB
S315000006403C460025FC48C678C078ED21084030437A
S31500000650F949C870084680782021084020287DD1B5
S31500000660F548807810210840102878D1F007C00F8F
S31500000670002819D0F0488078DF210840EE498870BC
S3150000068008468078EF210840EB4988700020A08159
S31500000690E0802078FE21084020702078062108435B
S315000006A0207008200543A5E0207802210840002894
S315000006B056D0A089002809D0A089401EA0812169B2
S315000006C0481C20610878DC49087193E0E08800281E
S315000006D02DD0207804210840002818D0E088012871
S315000006E006D1D548807808210843D349887005E0AB
S315000006F0D1488078F7210840CF498870CE48807865
S31500000700EF210840CC4988700846007972E0CA4853
S31500000710807804210843C84988706079012108431C
S31500000720C5490871207804210843207062E02078CA
S31500000730FE2108402070607801280BD1BE488078E1
S31500000740DF210840BC49887008468078EF210840C0
S31500000750B9498870E06900F0AAFB4BE035E007E094
S315000007602079B5490871207802210843207041E0BC
S31500000770E088401EE080E088002809D0E088012853
S3150000078016D1AD48807808210843AB4988700FE040
S315000007902078FE2108402070A7488078DF21084095
S315000007A0A549887008468078F7210840A2498870D4
S315000007B0A1480179A268501CA0601170E088002849
S315000007C018D1E06900F077FB14E0102030400028D3
S315000007D010D00020A081E080012060702078FE21EA
S315000007E00840207094488078EF210840924988702C
S315000007F004200543002D05D0608828436080E06909
S3150000080000F05EFBF8BD70B505468C4CE56118201E
S3150000081001F0A3F9A06122468949182001F0E2F906
S315000008206061202020703A20207101206070002035
S31500000830E080A08160808348406B40210843814965
S31500000840486300207C498870402088710220C87067
S315000008507D48406A7D4908400521090208437A49D6
S3150000086048620846006A794908400521090208439A
S315000008707549086276480321090240188068C00954
S31500000880C001802108437249032212028918886038
S315000008906F480068FF21013108436D490860002058
S315000008A065494871887108200872252048700846F5
S315000008B080784006400E8030887008468078402157
S315000008C008435D49887063484460204670BD10B592
S315000008D004460020584988701820A269616901F011
S315000008E081F900205B4948605648406B40218843A7
S315000008F05449486310BDFFB581B006460F461546FC
S315000009003446002D02D1002005B0F0BD60780128E4
S315000009100FD14948C07820210840202807D02078E8
S31500000920C007C00F002802D1A08900280BD00820DC
S31500000930EAE72078C007C00F002802D1A089002866
S3150000094001D00820E0E701F0A1F820780121084352
S3150000095020702761A5810498607037488078EF2160
S3150000096008401030344988700846807820210840B5
S31500000970202806D130488078042108432E49887003
S3150000098006E02D488078DF21084020302A4988700B
S31500000990207820210840002807D020780621084327
S315000009A0207020792449087118E020781021084029
S315000009B0002807D02078F9210840207060791E4968
S315000009C008710BE0207808210840002806D020781E
S315000009D002210843207000201749087101F042F8EF
S315000009E0002091E7FFB581B0074615461E463C46F6
S315000009F0002D02D1002005B0F0BD002E01D18120CE
S31500000A00F9E7207808210840002801D00920F2E7FC
S31500000A106078012820D10848C07820210840202885
S31500000A2007D02078C007C00F002802D1E088002830
S31500000A301CD00820DFE700000060064078F0FF1FAA
S31500000A403D0600000080044040D00440FFFDFFFE4C
S31500000A5000E100E0D80000202078C007C00F002881
S31500000A6002D1E088002801D00820C4E701F00EF882
S31500000A7020780121084320700298A060E580667006
S31500000A8050488078EF21084010304E49887008465B
S31500000A90807820210840202806D14A488078042101
S31500000AA008434849887006E046488078DF210840B8
S31500000AB0203044498870207820210840002809D039
S31500000AC020780621084320702079012108433D49FA
S31500000AD008710BE0207810210840002806D0207805
S31500000AE0F9210840207060793649087100F0BAFF94
S31500000AF0002080E730B503460C4619460878C00743
S31500000B00C00F002801D0082030BD002C04D0012CD5
S31500000B1012D0022C33D129E07F2A01D98920F3E7AC
S31500000B205006000E08710878E725284008700878F6
S31500000B3020252843087024E02348824201D98920D1
S31500000B40E2E70A715004000E4871487906252840EC
S31500000B5048714879F025284348710878D7252840F8
S31500000B60087008781025284308700AE00878CF2511
S31500000B7028400870087808252843087001E08D2071
S31500000B80C2E700BF0020BFE770B504460D46264603
S31500000B9000F07CFF708828800020708000F062FFE3
S31500000BA0002070BD10B5024613460648C0782024C2
S31500000BB02040202801D0012000E0002008700020FD
S31500000BC010BD000000600640FF03000010B504469B
S31500000BD000F042FE10BD38B50546002000F05AF878
S31500000BE004466946002000F064F82046009906F0A5
S31500000BF01DFB38BD70B504462546434800690121F2
S31500000C000904884340490861A868FFF7DFFF70BD03
S31500000C1070B505463D4CA5600F2000F09EFF606054
S31500000C2022463B490F2000F0DDFF206000203649B8
S31500000C30086138484861002088613748006ADF212A
S31500000C4009068843012149070843334908620620FB
S31500000C502D49086131480460204670BD70B50446D0
S31500000C6025462948006940084000274908610F20A9
S31500000C706A68296800F0B6FF00202849086070BD40
S31500000C8001462148006940084000401C1E4A106188
S31500000C90002070470146224870470246214881429B
S31500000CA001D998207047481E0146174B586100200D
S31500000CB0F8E7034614484269501C02460860086873
S31500000CC00002000A08600020704710B5044600F0D4
S31500000CD0DDFE0D480069C007C00F00280BD00A488A
S31500000CE00069400840000849086108460069400854
S31500000CF04000401C086100F0B5FE002010BD014612
S31500000D00014880697047000000E000E0F000002024
S31500000D10F50B00007FA9030000ED00E0D8000020DD
S31500000D20006CDC02FFFFFF0001464D4841604D4A62
S31500000D30D26B01231B061A434A4BDA6300224A4B45
S31500000D401A605A60DA600023474A5361D3615362DE
S31500000D50D3625363454A444B9A602C23424AD3617B
S31500000D60002313622C23D362002313632C235363C3
S31500000D70002393633E4A526B3E4B1A4003231B02E9
S31500000D801A433B4B5A631A46D26B3A4B1A4003231B
S31500000D901B021A43364BDA63374A5269374B1A40FD
S31500000DA001239B021A43344B5A6108220260344ADB
S31500000DB05061704701462C4A126898239A432A4B81
S31500000DC01A6000222E4B5A61704701460A46264891
S31500000DD000689823984313681843234B1860002033
S31500000DE07047014620480068982290431E4A1060CA
S31500000DF00020704701461C484068704730B50346DE
S31500000E00022901D9822030BD1E48405C002801D04D
S31500000E100920F8E794B214480C301B4D6D5CED00C8
S31500000E20401944601148824201D99820EBE700201E
S31500000E30E9E710B50346022901D9822010BD114801
S31500000E40405C002801D00920F8E707480C300E4C1A
S31500000E50645CE4000019406810600020EEE70000C2
S31500000E600CF0FF1F0080044000800340FFFF0000DD
S31500000E7040D00440FFFBFFFE00C00440FFFCFFFE25
S31500000E80D80000203B8C0000388C000010B50446CA
S31500000E900C480078012148400A4908700846007845
S31500000EA0002803D008480068FFF79BFF10BD0146E5
S31500000EB001220A707047014601224A707047704746
S31500000EC07047000020F0FF1F18F0FF1FFFB581B02C
S31500000ED006460C461D460A9F00202070002301226C
S31500000EE003A93046FFF707FD00BF20780028FCD095
S31500000EF02078002801D105B0F0BD002060700123E4
S31500000F002A4639463046FFF76DFD00BF6078002857
S31500000F10FCD000BF69463046FFF744FE68460078BD
S31500000F200128F7D16078002800D1E4E70120E2E744
S31500000F30F0B585B007460C4616461D46684606704F
S31500000F402A46401C0A9906F09BF9002020700123CE
S31500000F506A1C69463846FFF7CEFC00BF2078002899
S31500000F60FCD000BF04A93846FFF71CFE6846007C8B
S31500000F700128F7D12078002801D105B0F0BD012065
S31500000F80FBE7FFF7EEFA01F00AFD00BFFEE70000FF
S31500000F9000B591B0A2A004F03CFFB0A3B1A24021DD
S31500000FA001A806F0EDFE01A9B5A004F032FFB7A333
S31500000FB0B8A2402101A806F0E3FE01A9B0A004F002
S31500000FC028FFBBA3BDA2402101A806F0D9FE01A9B6
S31500000FD0ABA004F01EFFC048C0A24021036801A8D0
S31500000FE006F0CEFE01A9A6A004F013FFC1A240217F
S31500000FF001A806F0C5FE01A9A1A004F00AFFBEA241
S31500001000402101A806F0BCFE01A99DA004F001FF45
S31500001010C1A004F0FEFE11B000BD01207047002003
S31500001020704701207047CB4800787047C94908705F
S31500001030704786B000240025002600270020059072
S3150000104004F065FFFFF7A4FF0021C34803F096FDF7
S3150000105003F04DFE0590C1A0059904F0DAFE0121CA
S31500001060C24804F03DF903F0B5FF03F0CEFF03F0EC
S31500001070B1FF04F071F8BEA004F0CBFE0720C0015A
S31500001080BE4B002202210090104602F054FE0720BB
S31500001090C001BB4B002204210090104602F04BFE1B
S315000010A004F08FF900BFB74801F0CCF9641C02A820
S315000010B000F000FBB4A0029A039904F0AAFEA7A0D0
S315000010C0059904F0A6FEB7480078002809D000204C
S315000010D0B4490870B448428801882346B3A004F096
S315000010E098FEFFF79EFF012802D10220FFF79EFF20
S315000010F09848007800281FD0012810D0022828D14F
S3150000110000260027ADA004F084FE002D06D101259F
S31500001110AE480069A843401CAC4908611AE00025A6
S315000011200027ABA004F075FE002E02D1012605F0C3
S31500001130B6FA04F047FA00BF00250026A8A004F07E
S3150000114068FE002F02D1012705F074F804F03AFA80
S3150000115000BF00BFA7E71CB560E001A8032301227A
S31500001160A2490090A2480068FFF7B0FE002801D10E
S31500001170012000E000200646002E4CD19D48007854
S31500001180002848D19C480068FFF71FFE6A460420E5
S3150000119010560A2106F060F8041E01DB214600E025
S315000011A06142012088407D21C900484305462A4600
S315000011B0002191480068FFF721FE6A460520105677
S315000011C00A2106F049F8041E01DB214600E06142CF
S315000011D0012088407D21C900484305462A46012151
S315000011E085480068FFF70AFE6A46062010560A215F
S315000011F006F032F8041E01DB214600E061420120C0
S3150000120088407D21C900484305462A4602217A487E
S315000012100068FFF7F3FD012000F072F99DE700007A
S315000012200D0A3D3D3D3D3D3D3D3D3D3D3D3D3D3D4B
S315000012303D3D3D3D3D3D3D3D3D3D3D3D3D3D3D3DD8
S315000012403D3D3D3D3D3D3D3D3D3D3D3D3D3D3D3DC8
S315000012503D3D3D3D3D3D0D0A0000000056312E301E
S315000012602E3000002A204D51586C69746520525466
S315000012704F5331202020203A205B25735D0000006B
S31500001280252D3531732A0D0A00000000312E302E2F
S31500001290302E30002A204669726D776172652056BD
S315000012A0657273696F6E3A205B25735D00000000FE
S315000012B04652444D5F5245565F4500002A2048611C
S315000012C07264776172652056657273696F6E3A2033
S315000012D05B25735D00000000688C00002A204372C5
S315000012E065617465642044617465202020203A207D
S315000012F0257300002A0000002A2028432920434F96
S3150000130050595249474854203230313420465244CD
S315000013104D204B4C32355A003D3D3D3D3D3D3D3D1A
S315000013203D3D3D3D3D3D3D3D3D3D3D3D3D3D3D3DE7
S315000013303D3D3D3D3D3D3D3D3D3D3D3D3D3D3D3DD7
S315000013403D3D3D3D3D3D3D3D3D3D3D3D0D0A0D0A8D
S315000013500000000023F0FF1F00600740666C617309
S315000013606820696420307825780D0A00881300000B
S31500001370737461727420310A0D0000002801002088
S31500001380D80600200C010020686967682074747410
S315000013902025642C206C6F772074747425640D0AE4
S315000013A00000000030F0FF1F32F0FF1F25642C20E4
S315000013B02564202C2564200D0A0000004143544971
S315000013C056455F4F50454E0D0A00000000E000E014
S315000013D04143544956455F7374696C6C0D0A0000AD
S315000013E0766C70736D6F64650D0A000021F0FF1F47
S315000013F014F0FF1F20F0FF1F18F0FF1FFEB5044674
S31500001400FE4805682F46FF372937FF203130405BFD
S31500001410002829D0FF2029304659FF203130405B73
S31500001420401C01901AE0E16BA06BF36BB26B801A63
S31500001430994101D201200AE0F16BB06BE36BA26B1C
S31500001440801A994102D20020C04300E0002000909B
S315000014500098002800DB06E0374636680198401EF3
S3150000146001900028DFD100BF6068216801604860F4
S31500001470386820603C6067604460FF203130405B24
S31500001480401C81B2FF2031304153FF210131A06859
S315000014900843A06006F05AFBFEBD70B50646D74865
S315000014A00468002E03D10C2002F00BF970BDE5692B
S315000014B0E069806C002800D172B6E069806C401C3F
S315000014C0E16988642A4638322146FF3111313046B7
S315000014D003F066F82846FFF791FFE069806C002864
S315000014E00CD0E069806C401EE1698864002805D153
S315000014F0208B002801D062B600E062B600BFD5E7B7
S3150000150070B50546BD480468002D00D170BDE6697A
S31500001510E069806C002800D172B6E069806C401CDE
S31500001520E1698864FF2011300259001D005900212D
S3150000153052194841B263F0633046FFF75FFFE06936
S31500001540806C00280CD0E069806C401EE1698864DC
S31500001550002805D1208B002801D062B600E062B6D3
S3150000156000BFD3E770B50546A4480468002D03D133
S315000015700C2002F0A6F870BDE669284607C832645A
S31500001580F163B063E069806C002800D172B6E0694F
S31500001590806C401CE16988643046FFF72FFFE069E4
S315000015A0806C00280CD0E069806C401EE16988647C
S315000015B0002805D1208B002801D062B600E062B673
S315000015C000BFD8E770B506460C461546002E03D078
S315000015D0002C01D0002D01D10C2070BD2A462146D9
S315000015E0304603F027F80020F7E770B505460E46AB
S315000015F01446002D01D0002E05D1002C01D001206B
S3150000160020607F4870BD22463146284603F032F8F6
S31500001610F8E770B5064679480568304602F0A4F842
S315000016200446002C00D170BD00F030FAFF210131D4
S31500001630A0680840002814D06068216801604860EE
S31500001640FF203130405B401E81B2FF2031304153D4
S31500001650FF210131A0688843A0600321A0680843E8
S31500001660A06000F0FFF900BFDDE770B505462C4627
S315000016706248066800F00AFAFF210131A0680840B6
S31500001680002814D06068216801604860FF2031306E
S31500001690805B401E81B2FF2031308153FF21013132
S315000016A0A0688843A0600321A0680843A06000F0FA
S315000016B0D9F970BD70B50546002D00D170BD4F48F3
S315000016C00468E069806C002800D172B6E069806C1D
S315000016D0401CE1698864E01DF9304269016980694E
S315000016E06A602960A860FF2049300059002806D0AA
S315000016F0FF224D321059121F11598847A860E06920
S31500001700806C00280CD0E069806C401EE16988641A
S31500001710002805D1208B002801D062B600E062B611
S31500001720284602F067FF00BFC8E770B50546002DE2
S3150000173000D170BD31480468E01DF9304269016985
S3150000174080696A602960A860FF2049300059002836
S3150000175006D0FF224D321059121F11598847A86032
S31500001760284602F047FF00BFE3E710B523480468A8
S31500001770FF2049300059002806D0FF224D3210596B
S31500001780121F1159884710BD0020FCE770B50546A9
S31500001790002D00D170BD19480468E069806C0028EE
S315000017A000D172B6E069806C401CE1698864E01D76
S315000017B0F9304269016980696A602960A860FF2082
S315000017C049300059002806D0FF224D321059121F09
S315000017D011598847A8602A462146FF311D312846FF
S315000017E002F0DEFEE069806C002811D0E069806CB2
S315000017F0401EE169886400280AD103E024F0FF1F37
S31500001800FFFFFF7F208B002801D062B600E062B6A2
S31500001810284602F0EFFE00BFBCE78C480168FF20B7
S3150000182045304058704710B50246002A01D10C20B9
S3150000183010BD00290AD000209060854804684068E1
S315000018400023641858411460506003E0804C19CCA2
S3150000185019C20C3A0020EBE7F8B57C480468FF2073
S3150000186011300159001D00590022491C5041FF2228
S3150000187011321151111D0851E069806C002800D108
S3150000188072B6E069806C401CE1698864FF204930CB
S315000018900059002808D0FF224D321059121F115945
S315000018A08847FF21193108512046FF30113002F0D8
S315000018B0A1FEFF203130065B002E60D0FF202930CC
S315000018C00559761C57E02F68FF2211321259FF2363
S315000018D015331B59E96BA86B801A994101D2012077
S315000018E00EE0FF2011300059FF2115310959EB6B2D
S315000018F0AA6B801A994102D20020C04300E0002062
S3150000190000900098002834DBFF203130005B401E39
S3150000191081B2FF2031300153686829680160486050
S31500001920FF210131A8688843A8608900A86808409B
S3150000193000280BD0A8688843A860686B296B0160F3
S315000019404860E86A0089401EE96A0881E869616AB8
S31500001950884201D9E86960620220A860E8694068A7
S31500001960686068680068286068680560E8694560BE
S3150000197000E003E03D46701E0600A4D100BFE0690A
S31500001980806C00280CD0E069806C401EE169886498
S31500001990002805D1208B002801D062B600E062B68F
S315000019A08B2080000059002803D08B21890008591C
S315000019B080474920C0000059002803D04921C900AA
S315000019C008598047F8BD70B5054620480468E069A7
S315000019D0806C002800D172B6E069806C401CE16919
S315000019E088642246FF321D3211460C39284602F021
S315000019F021FEE069806C00280CD0E069806C401EF6
S31500001A00E1698864002805D1208B002801D062B6E0
S31500001A1000E062B670BD0D4A1168FF2235325050A3
S31500001A2070470A4B1A68FF23493398501B1D99507B
S31500001A307047064A1168FF224532505070470348E6
S31500001A400168FF203D3040587047000024F0FF1F1A
S31500001A50408C000008B502480068009000BFFEE711
S31500001A6024F0FF1FB1490868C169896C00290CD0B0
S31500001A70C169896C491EC2699164002905D1018B2F
S31500001A80002901D062B600E062B67047A74908682F
S31500001A90C169896C002900D172B6C169896C491C7B
S31500001AA0C2699164704770B50546A0480668F46936
S31500001AB0FFF7ECFFA0680B280BD00B20A060E562B7
S31500001AC04121204602F039FC6068216801604860C7
S31500001AD000BFFFF7C7FF70BD94480168886A70476A
S31500001AE070B5054691480468A06B002804D11820FB
S31500001AF001F0E7FD002070BDE06AA84202D8206B25
S31500001B00A84204D2142001F0DCFD0020F3E7E06ACD
S31500001B102D1A0C206843A16B08184068EBE770B5D6
S31500001B20054682480468A06B002804D1182001F0FD
S31500001B30C8FD002070BDE06AA84202D8206BA8420A
S31500001B4004D2142001F0BDFD0020F3E7E06A2D1A4F
S31500001B500C206843A16B0858ECE770B5054673483E
S31500001B600468A06B002804D1182001F0AAFD00200B
S31500001B7070BDE06AA84202D8206BA84204D21420A5
S31500001B8001F09FFD0020F3E7E06A2D1A0C20684360
S31500001B90A16B08188068EBE764480168088B7047FA
S31500001BA070B50346614D2968886A8B628A6B002A84
S31500001BB00CD0CE6A0D6BAD1BAC1C04E015688542DB
S31500001BC000D113600C32651E2C00F7D170BD10B524
S31500001BD056480468A08A01210843A0825448FFF7AA
S31500001BE0DFFF10BDF7B582B005460F464F480468C3
S31500001BF0A06B002805D1182001F063FD002005B078
S31500001C00F0BDE06AA84202D8206BA84204D2142094
S31500001C1001F057FD0020F2E7E06A281A0C22504333
S31500001C20A16B0E18FFF732FF3068019037600498F9
S31500001C30B060FFF717FF0198E1E710B53B4804686D
S31500001C40A08A40084000A0823A48FFF7A9FF10BDCD
S31500001C50F8B504460E46002734480568A86B0028E8
S31500001C6004D1182001F02DFD0020F8BDE86AA0423D
S31500001C7002D8286BA04204D2142001F022FD0020D5
S31500001C80F3E7E86A241A0C206043A96B0818476832
S31500001C900C206043A96B081846603846E5E7F8B59E
S31500001CA004460E4621480568A86B002804D1182072
S31500001CB001F007FD0020F8BDE86AA04202D8286BB3
S31500001CC0A04204D2142001F0FCFC0020F3E7E86AED
S31500001CD0241A0C206043A96B081887680C206043FF
S31500001CE0A96B081886603846E5E770B502460C46CB
S31500001CF0944201D20C2070BD0C4801680E4EB820EB
S31500001D0046500E488862A01A451C0D4B8B63CA626A
S31500001D100C6304E0094818609A60521C0C3328468C
S31500001D206D1E0028F6D100BFE5E7000024F0FF1F76
S31500001D30F14300006D4300002F7C0000A71A00004D
S31500001D4074F9FF1FF0B504460D4616462146EF48C6
S31500001D500268084608308860C86000200882488209
S31500001D60084614304861886100208883C8834E6223
S31500001D708D62C86208464030886337466F43BF00AD
S31500001D80886BC019C863886B0863886B4863232017
S31500001D9000018058002812D12320000110182327A3
S31500001DA03F01B85038461018D7197860002023270D
S31500001DB03F01D719388123273F01D7197881D448A5
S31500001DC0086223200001835805E08B4202D141209E
S31500001DD00001F0BD1B682320000110188342F4D1D6
S31500001DE0232000011018406807680F6023200001B7
S31500001DF010184068016023200001101840684860F0
S31500001E0079602320000110180089401C23273F0118
S31500001E10D71938810020DCE770B504460D46164612
S31500001E200023324629462046FFF78CFF70BDFFB5DA
S31500001E3083B01E46039DB5480768FFF727FEB449E1
S31500001E40286A884205D0FFF70DFE0F20C00107B0B3
S31500001E50F0BDE86A00285AD10421059808400028F8
S31500001E6050D0FC694AE0AB48A06028461430E062D6
S31500001E706068216801604860A96908682063214696
S31500001E803031AA691160AA6962634160A88B401C5F
S31500001E90A883002E04D118210598084000282BD0CD
S31500001EA0002E0AD0FF201130C259001DC059002152
S31500001EB092194841A263E06314E00821059808409E
S31500001EC0002807D00C98426801688068E263A16325
S31500001ED0206407E0224638323946FF3111310C982A
S31500001EE002F05EFB2046FFF789FAE06A002805D07B
S31500001EF0FFF7B8FD8848AAE705F028FEE86A00283B
S31500001F00B1D004E0FFF7AEFD8348401E9FE7686B43
S31500001F10019004980090686A401C029009E00198BC
S31500001F200168009801600198001D01900098001D4D
S31500001F3000900298401E02900028F0D1696A89003C
S31500001F40686B40186863E96B686B884201D3A86BBD
S31500001F506863E86A401EE862288A00281ED0AC68DA
S31500001F606068216801604860288A401E2882303CEB
S31500001F700020E062E069796A884201D9E069786206
S31500001F800220A060E06940686060606800682060C8
S31500001F9060680460E069446005F0CCFDFFF762FD0F
S31500001FA0002054E7F7B584B01746049D57480668E5
S31500001FB0FFF76CFD5649286A884205D0FFF752FDA7
S31500001FC00F20C00107B0F0BDA96AE86A884228D38D
S31500001FD0F807C00F00281FD0F46918E04D48801C90
S31500001FE0A06028460830E0626068216801604860A9
S31500001FF0E9680868206321463031EA681160EA68BA
S3150000200062634160288A401C288205F09FFDA96A08
S31500002010E86A8842E2D204E0FFF724FD3E48801ECB
S31500002020D0E7286B019005980290686A401C0390DF
S3150000203009E002980168019801600298001D02906B
S315000020400198001D01900398401E03900028F0D1CE
S31500002050696A8900286B40182863E96B286B8842F7
S3150000206001D3A86B2863E86A401CE862A88B0028A5
S3150000207041D06C696068216801604860A88B401E89
S31500002080A883303CFF210131A0680840002814D005
S315000020906068216801604860FF203130805B401E27
S315000020A081B2FF2031308153FF210131A06888437E
S315000020B0A0600321A0680843A0600020E062E069F8
S315000020C0716A884201D9E06970620220A060E06905
S315000020D04068606060680068206060680460E0696D
S315000020E0446002203840002802D005F07FFD08E059
S315000020F005F020FD05E002203840002801D005F05B
S3150000210075FDFFF7AFFC00205CE7000024F0FF1F21
S31500002110736D776C3104000083070000FFB581B052
S3150000212004460F46FE480568A76120460830A060B1
S31500002130E060002121826182FFF7A8FC0398002855
S3150000214020D1E820465908E0A64205D1FFF78AFCCF
S315000021504120000105B0F0BD36682846E8308642C9
S31500002160F2D1EC21495908682060EC2149590C60EC
S31500002170EC21495961604460F020405B401C81B20B
S31500002180F0204153E7486061FFF76CFC0020E1E76F
S3150000219070B504460D4600231A4629462046FFF729
S315000021A0BDFF70BD70B504460D46002301222946C9
S315000021B02046FFF7B3FF70BDF8B50546D848066858
S315000021C0FFF764FCD7496869884203D0FFF74AFCE9
S315000021D01F20F8BD0020686135E0AC6860682168A2
S315000021E001604860288A401E2882303CFF21013168
S315000021F0A0680840002814D0606821680160486023
S31500002200FF203130805B401E81B2FF203130815388
S31500002210FF210131A0688843A0600321A06808431C
S31500002220A060E069716A884201D9E06970620220A3
S31500002230A060E0694068606060680068206060686F
S315000022400460E0694460288A0028C6D1E8208759DE
S315000022500DE0AF420AD16868296801604860F02045
S31500002260805B401E81B2F020815304E03F68304617
S31500002270E8308742EDD100BFFFF7F4FB05F05AFCCA
S315000022800020A6E710B5044600212046FFF794FF7C
S3150000229010BD10B50246A2480168A24C5069A04282
S315000022A001D0002010BDC869806C002800D172B62C
S315000022B0C869806C401CCC69A0649069002801DC68
S315000022C0002303E09069401E90610123C869806C79
S315000022D000280CD0C869806C401ECC69A064002818
S315000022E005D1088B002801D062B600E062B6184618
S315000022F0D8E770B506468A4805688A4970698842F3
S3150000230001D01F2070BDE869806C002800D172B62C
S31500002310E869806C401CE9698864B06900283DDB87
S31500002320308A00283AD0B468606821680160486045
S31500002330308A401E3082303CFF210131A0680840BF
S31500002340002814D06068216801604860FF203130A1
S31500002350405B401E81B2FF2031304153FF210131E5
S31500002360A0688843A0600321A0680843A0600020FD
S31500002370E062E069696A884201D9E0696862022020
S31500002380A060E0694068606060680068206060681E
S315000023900460E069446005F0CDFB02E0B069401CD2
S315000023A0B061E869806C00280CD0E869806C401E3A
S315000023B0E9698864002805D1288B002801D062B617
S315000023C000E062B600209DE7F3B581B006465448AA
S315000023D0076800210298016000203060388B0028D1
S315000023E001D00D20FEBDFFF751FB31463846E830DF
S315000023F001F03AF80546002D01D02846F2E7E8201C
S31500002400C459F020C05B00900FE0464960698842DD
S3150000241001D01F250EE020460830029901F024F86D
S315000024200546002D00D005E024680098411E009165
S315000024300028EAD100BFFFF715FB002D00D034605D
S315000024402846CFE770B5044635480568288B00282E
S3150000245001D00D2070BD33496069884201D01F202C
S31500002460F8E7E869806C002800D172B6E869806CEC
S31500002470401CE9698864A069002819DCEE692A48CD
S31500002480B06020460830F0627068316801604860CC
S31500002490E1680868306331463031E2681160E2680D
S315000024A072634160208A401C208205F04FFB02E0E7
S315000024B0A069401EA0611B496069884203D0FFF7EE
S315000024C0D1FA1F20C6E7E869806C00280CD0E869BD
S315000024D0806C401EE9698864002805D1288B002895
S315000024E001D062B600E062B60020B3E770B50546DB
S315000024F00C460D48A06028460830E06260682168F6
S3150000250001604860E9680868206321463031EA685E
S315000025101160EA6862634160288A401C288205E0EF
S3150000252024F0FF1F6D73776C2B0400002046FEF726
S3150000253065FFE06A002801D0372070BD0020FCE767
S31500002540F3B581B005467E480468208B002801D08B
S315000025500D20FEBD7B496869884201D01F20F8E73F
S31500002560E069806C002800D172B6E069806C401C7E
S31500002570E1698864A86900280EDCE66932463832CB
S315000025802146FF311131029802F00AF831462846F9
S31500002590FFF7ACFF074603E0A869401EA8610027C5
S315000025A068496869884203D0FFF75CFA1F20D0E7C4
S315000025B0E069806C00280CD0E069806C401EE169FF
S315000025C08864002805D1208B002801D062B600E07F
S315000025D062B63846BDE7F8B504460F465848066861
S315000025E0308B002801D00D20F8BD5649606988421D
S315000025F001D01F20F8E7F069806C002800D172B680
S31500002600F069806C401CF1698864A06900282DDCA3
S31500002610F569002F1AD14C48A86020460830E862B8
S315000026206868296801604860E16808682863294687
S315000026303031E2681160E2686A634160208A401CBA
S31500002640208205F083FA0020009014E0FF2011306C
S315000026508259001D80590021D2194841AA63E863B6
S3150000266029462046FFF742FF009004E0A069401E7D
S31500002670A0610020009033496069884203D0FFF7CB
S31500002680F1F91F20B0E7F069806C00280CD0F069E2
S31500002690806C401EF1698864002805D1308B0028C3
S315000026A001D062B600E062B600989DE7F3B581B04E
S315000026B0054623480468208B002801D00D20FEBD66
S315000026C020496869884201D01F20F8E7E069806CDC
S315000026D0002800D172B6E069806C401CE16988640C
S315000026E0A86900280DDCE6690298426801688068DE
S315000026F0F263B163306431462846FFF7F7FE0746BA
S3150000270003E0A869401EA86100270E49686988424F
S3150000271003D0FFF7A7F91F20D1E7E069806C0028F6
S315000027200CD0E069806C401EE1698864002805D100
S31500002730208B002801D062B600E062B63846BEE7BC
S3150000274024F0FF1F6D73776C2B0400004A4908685C
S31500002750704710B50446204600F01CF910BD4648E7
S31500002760016808897047444A1168088170474248E1
S3150000277001680846FF3051307047002070477047A7
S315000027803D480168486D7047F8B53B4804683B48CA
S31500002790208248206082082020600120606002209C
S315000027A0E0810F206081A081FF2071300059002850
S315000027B002D1012000F0EEF801F09EFF26464836D1
S315000027C0E661E08A6083E08AB084FF2051300059D8
S315000027D000042B494018F0600320B0602046E83022
S315000027E0E8210851EC2108510021F0200153F22084
S315000027F001533046E030FF2129310851091D0851A7
S315000028000021FF2031300153801C01530027FF2097
S31500002810713005590020009007E0E868B84200D9F9
S31500002820EF680098401C00901C352868002803D0EB
S31500002830134900988842F0D3C42007512120000193
S31500002840251810482860FF2069300059A8600EA09E
S31500002850286111486860781CE8602046C830C821A5
S315000028600851CC2108510021D0200153D220015318
S315000028700121D4200151F8BD24F0FF1FFA290000E0
S31500002880FFFF0000030000805F6D71785F69646C74
S31500002890655F7461736B0000551A0000F1B584B072
S315000028A000260498446860480460604820606048D8
S315000028B02060604820606048206001A82060932165
S315000028C08900204601F0DEFD24222046FF305130EB
S315000028D0049904F0D5FCFFF757FFFF206530005937
S315000028E0002807D0FF20653000590390FF20613093
S315000028F0065902E00C2005B0F0BD3146039801F000
S31500002900DEF803988019401E00090001E0634B4F72
S31500002910384697300009000102902546483502984E
S31500002920583868610298286138460F30000900015E
S31500002930A86143496869086001F00CFF0646012159
S315000029402046FF307530FFF723FC01212046F43086
S31500002950FFF71EFC3B48FFF706FF2F210F2001F073
S3150000296010FE0646002E01D03046C4E7364801F078
S315000029702BFD0020FEF74CF92146FF3145310020A2
S31500002980FEF797F90020FEF726F9FF213D310851A1
S315000029900020B0E7FFF77AF800BF00BFFEE7FEB5FC
S315000029A0214804680020FEF76BF921200001201859
S315000029B08068FF216D31095900910190E06900237B
S315000029C01A46C16821200001201801F0E0F80646E9
S315000029D0002E02D10420FFF7DDFF304600F060FE36
S315000029E00027FF207130055917E0287DC007C00F6A
S315000029F0002810D0B900154A5158A86800910190D6
S31500002A00AA69E0690023C168284601F0C0F80646B5
S31500002A10304600F045FE1C357F1C28680028E4D1AE
S31500002A2005F082F80020FEBD24F0FF1F4C8C00004C
S31500002A30548C0000588C00006C8C00003000002084
S31500002A4028F0FF1F2F4200000000000000F0FF1FCB
S31500002A500146002902D1412000017047002008608C
S31500002A608860FD4848600020C86004200861002096
S31500002A70F3E7F8B50446F9480668F569002C02D173
S31500002A8041200001F8BDF449E068884202D04120A7
S31500002A900001F7E7A07E802802D041200001F1E77F
S31500002AA0A06AA84202D041200001EBE7F069806CE1
S31500002AB0002800D172B6F069806C401CF169886408
S31500002AC0E76A0020E062207A8007800F002803D0A2
S31500002AD00020A062A0763AE0A08C002834D0E569F8
S31500002AE06868296801604860A08C401EA084A562C1
S31500002AF0E869716A884201D9E86970620220A860B3
S31500002B00E869406868606868006828606868056009
S31500002B10E869456001214902A0680840002810D0F4
S31500002B202069296AC98988420BD22069E969C9895D
S31500002B30884203D22846216900F04BFDE06A401C1A
S31500002B40E06204F0F7FF02E00020A076A062002F0A
S31500002B5003D03946F06900F050FDF069806C00281A
S31500002B600CD0F069806C401EF1698864002805D19C
S31500002B70308B002801D062B600E062B6002081E703
S31500002B80F8B50646B5480768FF209D30C559002DA3
S31500002B9000D1F8BDB049E868884200D0F9E7FEF7F1
S31500002BA075FF2C680DE0A07E002809D0A06AB0420F
S31500002BB006D1F869A0622046FFF75BFF2C6800E0AB
S31500002BC02468AC42EFD1FEF74DFF00BFE1E770B5D8
S31500002BD0A2480568FF209D304059002801D00020FA
S31500002BE070BD9F4C246064600020208160819A48FB
S31500002BF0E060FEF74BFFFF209D304059002803D0D0
S31500002C00FEF730FF0020EBE7FF209D304451954949
S31500002C10FF20DD304151FEF725FF0020E0E70146A9
S31500002C20002902D14120000170478B4A4868904232
S31500002C3002D041200001F7E70020486000BFF3E71B
S31500002C40FEB5044685480568EE69288B002801D044
S31500002C500D20FEBD002C02D141200001F9E77E497E
S31500002C60E068884202D041200001F2E7A06AB04243
S31500002C7001D17D48EDE7F069C089019020461A3000
S31500002C800290207AC007C00F002804D10221A06854
S31500002C900840002871D0207AC007C00F002803D052
S31500002CA001270020009002E0676901200090FF21C3
S31500002CB00131A0680840002862D0E869806C0028CD
S31500002CC000D172B6E869806C401CE96988643AE014
S31500002CD000983F1AA06A006AC189019881420CD9FE
S31500002CE0A06AC069C1890198814203D9A06A019985
S31500002CF000F06FFCE06A401CE062E869806C002826
S31500002D000CD0E869806C401EE9698864002805D10A
S31500002D10288B002801D062B600E062B600F0E1FB25
S31500002D20E869806C002800D172B6E869806C401CA6
S31500002D30E96988644849E068884204D0FEF792FE53
S31500002D404120000185E7002F03D002980078002873
S31500002D50BED1002F01D08020A076E869806C0028C3
S31500002D6021D0E869806C401EE969886400281AD180
S31500002D70288B002802D062B615E01BE062B612E08E
S31500002D800AE000983F1A00F0ACFB3349E06888423D
S31500002D9002D0412000015CE7002F04D0029804F025
S31500002DA0B0FF0028EDD1002F02D12F48C01E50E7FA
S31500002DB0A66290E0E869806C002800D172B6E869E6
S31500002DC0806C401CE96988640298007800284FD01E
S31500002DD0FF210131A0680840002812D0A06A006ACD
S31500002DE0C189019881420CD9A06AC069C18901983C
S31500002DF0814203D9A06A019900F0EBFBE06A401C0E
S31500002E00E062706831680160486020461C30F062FC
S31500002E100821A0680840002805D0314620461C300D
S31500002E2000F00CFC0AE0216A08683060216A0E6036
S31500002E30216A71604660A08C401CA0840B48B0607B
S31500002E4004F084FE0449E068884214D0FEF70AFEC6
S31500002E5041200001FDE600007874756D24F0FF1F27
S31500002E60FC000020812B0000090400002302000062
S31500002E708020A076A662FF210131A06808400028C4
S31500002E8018D00821A0680840002813D120461C301D
S31500002E9000F0F0FB0746306AC189B9420AD9F069E9
S31500002EA0C089B84203D93946304600F092FBE06A41
S31500002EB0401CE062E869806C00280CD0E869806CF0
S31500002EC0401EE9698864002805D1288B002801D0B6
S31500002ED062B600E062B601214902A06808400028F7
S31500002EE02BD0E869806C002800D172B6E869806C46
S31500002EF0401CE96988642069316AC98988420BD215
S31500002F002069F169C989884203D23046216900F0F7
S31500002F1060FBE06A401CE062E869806C00280CD027
S31500002F20E869806C401EE9698864002805D1288B11
S31500002F30002801D062B600E062B6002089E6F8B546
S31500002F400546F7480668FF209D308059002801D1C4
S31500002F501820F8BDFF209D308759F249F86888424D
S31500002F6001D01A20F5E7F469A86AA04208D02846DD
S31500002F70FFF766FE00900098002801D00098E8E769
S31500002F800020E860286800280AD0FEF77FFD686800
S31500002F902968016048603889401E3881FEF762FD65
S31500002FA022E0EC696068216801604860A88C401ED8
S31500002FB0A88441210901204601F0BFF9FEF766FD0C
S31500002FC0E069716A884201D9E06970620220A060F6
S31500002FD0E06940686060606800682060606804605E
S31500002FE0E0694460FEF73EFDA88C0028D9D1F4695B
S31500002FF0FEF74CFDE86A002803D02046E96A00F097
S31500003000FCFAFEF72FFD04F095FD0020A1E702462D
S31500003010002A01D0002902D1412000017047C14B8E
S315000030205068984202D041200001F7E71069086015
S315000030300020F3E70246002A01D0002902D14120F0
S3150000304000017047B74B5068984202D041200001FA
S31500003050F7E7906808600020F3E70246002A01D0EF
S31500003060002902D1412000017047AE4B50689842BA
S3150000307002D041200001F7E7106808600020F3E75E
S315000030800246002A01D0002902D1412000017047E2
S31500003090A44B5068984202D041200001F7E7D0685F
S315000030A008600020F3E7F0B587B004460E469C485A
S315000030B000680690002E03D101AE3046FFF7C8FC2B
S315000030C0002C03D14120000107B0F0BD954970687E
S315000030D0884202D041200001F6E70698FF30913081
S315000030E0C568002D06D1FFF772FD00900698FF30E7
S315000030F09130C5688B49E868884201D01A20E3E719
S31500003100FEF7C4FC2F6807E0A74204D1FEF7AAFC2D
S3150000311041200001D8E73F68AF42F5D131693068F8
S315000031200843A0607F48E060F0686061B068206195
S315000031300020A076E062A06220461C30E06120629A
S315000031400021A184E18469680868206069680C60D0
S315000031506968616044602889401C2881FEF782FC0A
S315000031600020B1E70246002A02D141200001704743
S315000031706C4B5068984202D041200001F7E70129C4
S3150000318008D0022906D0042904D0082902D04120FB
S315000031900001ECE711610020E9E710B5024660483E
S315000031A00368002A02D14120000110BD5D4C506821
S315000031B0A04202D041200001F7E7C420C05888424F
S315000031C002D241200001F0E791600020EDE70246BF
S315000031D0002A02D1412000017047524B50689842A4
S315000031E002D041200001F7E7FF200130814207D0DD
S315000031F04000814204D0002902D041200001EBE7C3
S3150000320011600020E8E70246002A02D141200001B1
S315000032107047444B5068984202D041200001F7E7BE
S31500003220D1600020F4E7F8B505463D4800680090F7
S31500003230002028600098FF309130C668002E01D12A
S315000032400020F8BD3749F068884201D01A20F8E717
S31500003250FEF71CFC2946304600F006F90746002F0B
S3150000326003D0FEF7FFFB3846EBE7346817E02D493D
S31500003270E068884205D0FEF7F5FB2C60412000018E
S31500003280DFE7294620461C3000F0EEF80746002FFF
S3150000329004D0FEF7E7FB2C603846D2E72468B44238
S315000032A0E5D1FEF7DFFB0020CBE770B505461C48ED
S315000032B00468002D02D14120000170BD1949E8685B
S315000032C0884202D041200001F7E7E069806C0028BF
S315000032D000D172B6E069806C401CE16988642846BA
S315000032E01A3004F00EFD002820D0E069806C00281A
S315000032F00CD0E069806C401EE1698864002805D125
S31500003300208B002801D062B600E062B6A86AE169A7
S31500003310884201D10448D0E70348C01ECDE700002B
S3150000332024F0FF1F7874756D09040000E069A86237
S31500003330E069806C00280CD0E069806C401EE16971
S315000033408864002805D1208B002801D062B600E0F1
S3150000335062B601214902A868084000282CD0E66917
S31500003360E069806C002800D172B6E069806C401C70
S31500003370E16988642869316AC98988420BD228695B
S31500003380F169C989884203D23046296900F021F9DA
S31500003390E86A401CE862E069806C00280CD0E069AD
S315000033A0806C401EE1698864002805D1208B0028C6
S315000033B001D062B600E062B600207EE7F8B50446AA
S315000033C00D46164626480768C420C059A84202D2B0
S315000033D041200001F8BDFEF759FB002C01D0002E5C
S315000033E004D1FEF73FFB41200001F3E71D49E068E9
S315000033F0884204D0FEF736FB41200001EAE7206947
S3150000340030602561FEF72EFB0020E3E70246002A26
S3150000341001D0002902D1412000017047114BD0682C
S31500003420984202D041200001F7E7106908600020A9
S31500003430F3E710B50446002C05D14120000100F049
S3150000344040F9601E10BD0749E068884206D0412059
S31500003450000100F036F90020C043F3E7A08CF1E745
S3150000346024F0FF1F7874756DF8B505460E46FEF715
S315000034700DFB2889401C00902C682F4610E0AC42BA
S3150000348004D1FEF7EFFA34601D20F8BD6068B8423B
S3150000349004D0FEF7E7FA34601D20F6E727462468D5
S315000034A00098401E00900028E9D1AC4204D0FEF7F7
S315000034B0D9FA34601D20E8E76868B84204D0FEF700
S315000034C0D1FA34601D20E0E7FEF7CCFA0020DCE7F5
S315000034D0014600207047024670480168C4204058E3
S315000034E0704770B56D480568EC69E869806C00281E
S315000034F000D172B6E869806C401CE969886460682E
S31500003500216801604860E069696A884201D9E0691A
S3150000351068620220A060E0694068606060680068D8
S31500003520206060680460E069446004F00FFBE869AD
S31500003530806C00280CD0E869806C401EE9698864BC
S31500003540002805D1288B002801D062B600E062B6BB
S3150000355070BDF8B504460E46504805682F6AE06906
S31500003560C089009030013F1AB889A084E761A0683D
S31500003570022827D16068216801604860E069696AAD
S31500003580884201D9E06968620220A060E06940686B
S31500003590606060680068206060680460E06944609C
S315000035A0E869A04207D1A08C6883009886420FD9AB
S315000035B004F0CCFA0CE0A06C002809D1204600F0FB
S315000035C0BAFE05E0A06C002802D1204600F0B3FE4A
S315000035D0F8BD70B504460D46304806680121C9039A
S315000035E0A06A0843A062606C401C606429462046BD
S315000035F0FFF7AFFF04F09EFA70BD70B504460D46A6
S31500003600264806680121C903A06A0840002814D08C
S31500003610606CA84203D9606C401B60640DE000201A
S3150000362060640121C903A06A8843A062206AC18937
S315000036302046FFF78EFF04F07DFA70BDF0B5024616
S3150000364003680489661CCC69E58906E0DC69E489BF
S31500003650AC4200D904E01A461B68741E2600F5D158
S3150000366000BF14680C6011604A6061600489641CC4
S315000036700481F0BD10B501460A680C89631C002060
S31500003680C04306E0D469E489844201D2D469E08962
S3150000369012685C1E2300F5D110BD000024F0FF1F48
S315000036A010B5FE4C2368C1694A685C6A8C4200D238
S315000036B059620224846042601468046010604860A5
S315000036C010BD0246F54B19680B8B002B02D04B6BD5
S315000036D0D86801E0CB69D86C002A01D0002807D150
S315000036E00B8B002B02D04B6BDA6001E0CB69DA64FE
S315000036F0704770B505462E46E8480468F068010C28
S31500003700FF2051300059814203D01220FFF7D9FF24
S3150000371070BDE069806C002800D172B6E069806CEB
S31500003720401CE1698864B068022805D1FEF79AF961
S315000037301120FFF7C6FFEBE73046FFF7B1FFE06960
S31500003740806C00280CD0E069806C401EE1698864BA
S31500003750002805D1208B002801D062B600E062B6B1
S3150000376004F0E8F900BFD3E7F8B50546CB4804688E
S31500003770002D01D1E069F8BD606DA84202D1204656
S315000037804830F8E7E069806C002800D172B6E0693D
S31500003790806C401CE1698864C820005906465C3E7E
S315000037A0D020075B18E0F068A84212D1E069806C6F
S315000037B000280CD0E069806C401EE169886400280E
S315000037C005D1208B002801D062B600E062B63046F3
S315000037D0D1E7F06D06465C3E38467F1E0028E2D1F2
S315000037E0FEF740F90020C6E7FEB50746AB48056878
S315000037F0002F0AD0380C0190FF205130405981B279
S315000038000198814201D01220FEBD3846FFF7ACFF79
S315000038100446002C03D028464830844201D11220A9
S31500003820F2E72846F430FEF70DFEFEF72FF9A06802
S31500003830092807D1FEF716F92846F430FEF759FD98
S315000038400020E1E7A068022807D1E869A04233D04A
S3150000385060682168016048602EE0FF210131A068A0
S315000038600840002819D0A0680840002824D06068C5
S31500003870216801604860FF203130405B401E81B204
S31500003880FF2031304153FF210131A0688843A060F9
S315000038900321A0680843A0600EE001214902A06848
S315000038A00840002808D06068216801604860E06A26
S315000038B00089401EE16A088101218902A06808404A
S315000038C0002808D0606B216B01604860E06A0089BF
S315000038D0401EE16A08810920A060FEF7C3F80026B1
S315000038E00EE0B1002846FF30D1304058002806D0FF
S315000038F0B2002846FF30D130815820468847761CD2
S31500003900102EEED3A08980B20090E86902900120C3
S31500003910C007E060D020405B012806D10121D420F9
S3150000392041510021D82041510BE0D4204159009843
S31500003930814206D9D42100984851206E5C38D8219E
S315000039404851206EE16D01604860D020405B401E0A
S3150000395081B2D02041532846F430FEF7CAFC0298C3
S3150000396084420AD1FEF792F86068216801604860D7
S31500003970204600F04FFF04F0DAF8204600F04AFF38
S31500003980002041E710B5044600212046FFF72CFF32
S3150000399010BD70B541480568EC69606E002801D01D
S315000039A0606E80470020FFF7EDFF70BDF8B5064654
S315000039B03A480568002E0AD0300C0090FF2051309E
S315000039C0405981B20098814201D01220F8BD30469C
S315000039D0FFF7CAFE0446002C03D02846483084422E
S315000039E001D11220F2E7E869A0420BD1288B00280A
S315000039F005D0676904F090F92949816156E0FFF71F
S31500003A00C8FF53E0FEF742F867692548B863FF210F
S31500003A100131A0680840002819D0A0680840002895
S31500003A2033D06068216801604860FF203130405B18
S31500003A30401E81B2FF2031304153FF210131A06881
S31500003A408843A0600321A0680843A0601DE001210F
S31500003A504902A0680840002809D060682168016012
S31500003A604860E06A0089401EE16A08810DE00D4960
S31500003A70A0680840884208D1606B216B01604860ED
S31500003A80E06A0089401EE16A0881207AC007C00FFB
S31500003A90002802D02046FFF72CFE05E024F0FF1F89
S31500003AA09339000001040000FDF7DCFF00208DE7DC
S31500003AB010B5044600212046FFF778FF10BD8A089E
S31500003AC0511C01E0F94A04C04A1E1100FAD17047A0
S31500003AD0FFB585B070200190F5480468D020005BE2
S31500003AE0F449884202DB002009B0F0BD069901982E
S31500003AF008600798002804D0079D2846019900F021
S31500003B00C1FCD420005987B2D82000590490FF2068
S31500003B105130005900043843E8600498002803D166
S31500003B202046C830029002E004985C300290029968
S31500003B300868E86529465C31029A1160029929668F
S31500003B4029465C314160D020005B401C81B2D02008
S31500003B5001532E4600BF0496049EF06D5C38039018
S31500003B60039E781C87B2002F00D101272146C83159
S31500003B700398884204D00398808980B2B842EAD07C
S31500003B80D82104980851D42007512846ACE7FFB540
S31500003B9087B00546C64800680690E96806988030F2
S31500003BA0406C81420BD921210901069840188542B3
S31500003BB005D00E20FFF785FD00200BB0F0BD109854
S31500003BC0002817D0119EFF200930864204D8022013
S31500003BD0FFF777FD0020F0E7002303A93046109A8F
S31500003BE0FFF776FF04460398361A0A98002817D07E
S31500003BF01C3E15E0AE68982E00D8982630460F3049
S31500003C000609360100230A98002802D030461C30E7
S31500003C1000E03046002203A90290FFF759FF044650
S31500003C200320A060E06E002802D0E06E049002E05F
S31500003C300398201804900A9800280FD0049F049F28
S31500003C4038461C3004901C222946384603F018FBDF
S31500003C503D460121C9072868084328603146049873
S31500003C60FFF72DFF0698006AE9680901401A0590DA
S31500003C700598E0610598206205988089A0846869A6
S31500003C80A0621098002803D02021A06A0843A062F1
S31500003C900599898909982B4632460091019020465C
S31500003CA0049900F089FD002800D186E7A5652868FB
S31500003CB060650898206520467FE7FFB585B0074612
S31500003CC00D467B480668002F12D00020039002950F
S31500003CD0FF207130845900E01C342068002802D08F
S31500003CE02068B842F8D12068002806D1002404E0F4
S31500003CF02C46A069029001200390002C05D11020CB
S31500003D00FFF7DFFC002009B0F0BD3046F430FEF7C7
S31500003D1099FB0899079801910090F069C1682046BF
S31500003D20039B029AFFF733FF04903046F430FEF708
S31500003D30E0FA0498E7E7FFB581B00E465C480468F0
S31500003D40F00FC007002805D01520FFF7BAFC0020A9
S31500003D5005B0F0BD0198002804D01320FFF7B1FC90
S31500003D600020F5E70020009030460A9B049A03994C
S31500003D70FFF7A3FF0546002D21D0EF68E069806CB0
S31500003D80002800D172B6E069806C401CE169886445
S31500003D902846FFF785FCE069806C00280CD0E069B6
S31500003DA0806C401EE1698864002805D1208B0028BC
S31500003DB001D062B600E062B603F0BCFE00E0002768
S31500003DC03D480068401C3C4908603846C0E770B56D
S31500003DD006463046FFF7C8FC0446002C04D11220E4
S31500003DE0FFF76FFC002070BDA56E2846FBE7F8B50F
S31500003DF007460D463846FFF7B7FC0446002C04D1AB
S31500003E001220FFF75EFC0020F8BDA66EA5663046C0
S31500003E10FAE770B506463046FFF7A6FC0446002CC6
S31500003E2004D11220FFF74DFC002070BD656E2846B8
S31500003E30FBE7F8B507460D463846FFF795FC0446FE
S31500003E40002C04D11220FFF73CFC0020F8BD666E62
S31500003E5065663046FAE7F8B5064615480468204612
S31500003E60F430FEF7EFFAC820005905465C3DD02035
S31500003E70075B11E0A96D32220869314603F070FA3A
S31500003E80002805D12046F430FEF733FAE868F8BD7D
S31500003E907F1EE86D05465C3D002F01D0002DE9D15F
S31500003EA02046F430FEF725FA0020F0E76B617473C4
S31500003EB024F0FF1FFEFF00002CF0FF1F70B5054623
S31500003EC02846FFF751FC0446002C01D0A06D70BDBA
S31500003ED00020FCE770B50646FD4805682846F43024
S31500003EE0FEF7B0FAFF20713044590BE02069002834
S31500003EF007D032223146206903F032FA002800D179
S31500003F0003E01C3420680028F0D100BF2846F430B6
S31500003F10FEF7EFF9206870BD0146002900D1704711
S31500003F20C868FCE770B505462846FFF71DFC044641
S31500003F30002C00D170BDA06D0068FBE770B504468B
S31500003F40204600F005FA0546E86C70BD10B5E0485D
S31500003F500468E069FFF7F2FF10BD70B5044620461D
S31500003F60FFF702FC05462846FFF7E8FF70BDF8B5E7
S31500003F7004460D46284600F0EBF90646F76CF46455
S31500003F803846F8BD70B50446D14805682046E9694B
S31500003F90FFF7EDFF0646304670BDF8B506460C46FF
S31500003FA0CB4807682046FFF7DFFB0546002D00D10A
S31500003FB0F8BD29463046FFF7DAFF00900098F7E78C
S31500003FC070B506460C463046FFF7CEFB0546002D7B
S31500003FD001D1122070BD286AC08920600020F9E74F
S31500003FE0F7B582B00E461746B948006801900198A9
S31500003FF08030406CB04202D20C2005B0F0BD029871
S31500004000FFF7B2FB0446002C01D11220F5E7FDF7BD
S315000040103DFD206AC08938600198006A0090310130
S315000040200098401A2062606C002808D0E069C089B8
S31500004030B04208D931462046FFF78BFA03E03146F5
S315000040402046FFF786FAA349A068884213D1E06AA2
S315000040500546103D0821E868084000280BD0606836
S31500004060216801604860288B401E28832146284627
S315000040701030FFF7E3FA03F05DFDFDF7F3FC0020D7
S31500004080BBE7F7B588B092480568288B002802D0B0
S315000040900D200BB0F0BD089800280BD00898000C36
S315000040A00390FF205130405981B20398814201D0DC
S315000040B01220EEE70898FFF757FB0446002C01D1C3
S315000040C01220E6E728464830844201D11220E0E774
S315000040D02846F430FEF7B6F9FDF7D8FCA0680228AA
S315000040E007D1E869A04233D0606821680160486062
S315000040F02EE0FF210131A0680840002819D0A068F1
S315000041000840002824D06068216801604860FF20CC
S315000041103130405B401E81B2FF2031304153FF21D8
S315000041200131A0688843A0600321A0680843A0600D
S315000041300EE001214902A0680840002808D0606806
S31500004140216801604860E06A0089401EE16A0881D2
S3150000415001218902A0680840002808D0606B216B05
S3150000416001604860E06A0089401EE16A0881092012
S31500004170A060FDF777FC0020019012E00198810015
S315000041802846FF30D1304058002807D001988200D9
S315000041902846FF30D1308158204688470198401C78
S315000041A0019001981028E9D3EF692846F430FEF70C
S315000041B0A0F8A66D204600F0CBF8079009980028D5
S315000041C003D10798C06C049002E009980068049037
S315000041D0E06E05900598B04202D105981C30059016
S315000041E0B06802900298982801D898200290029808
S315000041F00F30000900010290286AF1680901401A8F
S3150000420006900698E0610698206206988089A08448
S315000042107069A062FDF73AFCBC4204D1606821686F
S315000042200160486000BFA18C04983346009101905C
S315000042302046029A059900F0BFFA002801D1042011
S3150000424027E70A98002802D00320A06002E0204653
S31500004250FFF726FA0020A064BC4201D103F067FCF8
S31500004260686AF969884201D003F070FCFDF7FAFB31
S3150000427000200EE770B596B004460D46164600209F
S3150000428069460870324629462046FFF7FAFE16B000
S3150000429070BD70B50E480568EC69FDF7F7FB0121A6
S315000042A00903A06A0843A062FDF7DCFB70BD70B588
S315000042B007480568EC69FDF7E9FB01210903A06AD7
S315000042C08843A06203F036FCFDF7CCFB70BD00000E
S315000042D024F0FF1F2902000008B5002000901B48AB
S315000042E00168C86980696A46904201D9012008BD03
S315000042F00020FCE715480168C869006D704713483F
S315000043000168088B002802D0486BC0687047C869EE
S31500004310C06CFBE70D480168088B002802D0486B8B
S315000043200C307047C8694C30FBE708480168C8691B
S31500004330C06870477047416970470246D06C0029D3
S3150000434001D0002800D1D1647047000024F0FF1F7F
S31500004350014608695838704710B503480468E06B91
S31500004360FCF764F810BD000024F0FF1F30B50246CC
S31500004370144B1868C169C3699B6C002B0CD0C369C8
S315000043809B6C5B1EC469A364002B05D1038B002BB9
S3150000439001D062B600E062B68B680B2B07D00B2308
S315000043A08B60CA624B680C681C60636000BFC3699F
S315000043B09B6C002B00D172B6C3699B6C5B1CC469F5
S315000043C0A36430BD24F0FF1F014607225207ED23E8
S315000043D01B02D218906807225207D21891607047C4
S315000043E007204007ED210902401880687047000049
S315000043F0F1B584B022480468E069039072B6208B58
S3150000440001282EDD606B029002980568002D02D10E
S315000044102020FEF79EF96F68A06B01900198002896
S3150000442015D0E06AB84212D8206BB8420FD338468E
S31500004430FDF756FB0646002E0CD03846FDF78DFBE1
S31500004440009002463846029B0499B04702E01420C9
S31500004450FEF77FF9208B401E2083284603F035FCAB
S315000044600CE00398806E002805D00398826E41699F
S315000044700498904702E00020FFF71AFB05B0F0BD54
S3150000448024F0FF1FF0B502461546144610460329D0
S3150000449067D9D307DB0F002B05D0154600232B70F9
S315000044A06D1C2A46491E02231340002B05D01446D4
S315000044B000232380A41C2246891E10468E0911E083
S315000044C0002308C008C008C008C008C008C008C04B
S315000044D008C008C008C008C008C008C008C008C096
S315000044E008C0761E002EEBD18B061F0F3B0003F093
S315000044F086FC103633302D2A2724211E1B18151250
S315000045000F0C0936002308C000BF002308C000BFF7
S31500004510002308C000BF002308C000BF002308C056
S3150000452000BF002308C000BF002308C000BF00234F
S3150000453008C000BF002308C000BF002308C000BF9A
S31500004540002308C000BF002308C000BF002308C026
S3150000455000BF002308C000BF002308C000BF00BF83
S31500004560024602230B40002B04D01446002323806E
S31500004570A41C2246CB07DB0F002B01D000231370AF
S31500004580F0BD70B505460E4631462846FDF7ADFB33
S315000045900446002C01D1FFF7DFFE204670BD000067
S315000045A0F7B581B0019C276864684E680D687D196F
S315000045B0744115605460019CA0688B680C4C24689B
S315000045C0FF340134646C0094009CE41A84420BD8D6
S315000045D00025176854687E1C6C4116605460009C68
S315000045E01C1B2418946001E0C4189460FFBD0000F1
S315000045F024F0FF1FF8B504460D480768FF20453034
S31500004600C659A068B04211D33146A06802F00EFE2A
S3150000461005460021226860685219484122606060A0
S3150000462028467043A168081AA06000BFF8BD0000C4
S3150000463024F0FF1FF8B5076844684E680D687D1BB7
S31500004640B4411560546083688C680094009CA34252
S315000046500CD2274C2468FF340134646CE31800251F
S31500004660176854687E1EAC4116605460009C1C1B83
S315000046709460F8BDF7B584B00B46049C276864685F
S315000046805E681D687D1BB44100950194049CA0687A
S31500004690996888420CD2164C2468FF340134646C45
S315000046A020180025009F019C7E1EAC4100960194B7
S315000046B00199CC0FE407009D6D006D082C43204640
S315000046C0009CE40FE4074D006D082C432146002AA8
S315000046D001D000241460C40FCC4206D0C40F054D8F
S315000046E06019002A01D00124146007B0F0BD000053
S315000046F024F0FF1FFFFFFF7F70B52C4C236819467F
S31500004700FF315131CA68072A03D907220724CC6032
S3150000471004E0002A02D101220124CC60D4018025C4
S315000047202C40DC82002007E00024214D03263602BF
S31500004730AD198600AC51401C0828F5D31C4C8034BA
S31500004740002004E00025ED438600A551401C00280A
S31500004750F8D070BD30B51548026800201062C4203C
S315000047608058841C1349234617E009604960CB81B1
S31500004770FF205D308058C018002808D1FF205D302A
S315000047808058C018C00180252840888101E000209B
S315000047908881106A88601162103118465B1E0028F5
S315000047A0E3D1106A5062002030BD000024F0FF1FE4
S315000047B000E100E064F7FF1FFFB583B005460E4633
S315000047C0174601200190F019401E000900010290D1
S315000047D002980446583C0298286130460F3000097A
S315000047E00001A8616C6158212046FFF74BFE08487E
S315000047F060630D9820620698406801210843A06313
S315000048000806E0630D98E064019807B0F0BD00006B
S315000048109339000070470000202800DD70470146EC
S31500004820C217D20E521852115201831A01229A400F
S315000048301F4B1B681A431E4B1A60C217D20E521822
S3150000484052115201831A01229A401A4B1B681A43CD
S31500004850184B1A6000BFE1E7202800DD70470146CB
S31500004860C217D20E521852115201831A01229A40CF
S31500004870104B80331A6000BFF0E770B500240025A6
S31500004880202800DD0124032900DD0124012C0ED09F
S315000048900346C617B60FF618B605350E054B0326A2
S315000048A036029B19AE009A198B071B0E137070BD4A
S315000048B080E200E000E100E0F8B504460E46174647
S315000048C0A648844206D1A648406BE1140843A44991
S315000048D048630BE0A348844207D1A148406B0121FD
S315000048E0090308439E49486300E0F8BDE0780C21BF
S315000048F08843E0700020A07039017D22D200724307
S31500004900104602F0A9FC85B22078410949010091C0
S315000049101F2000022840001200990843207065708D
S31500004920E0780C210843E07000BFDEE710B50446CE
S315000049308B48406B0121C9020843894948638A486C
S3150000494000688A490840032109020843864908602D
S315000049500846406885490840032109020843824900
S315000049604860E122520282497C48FFF7A5FF002CED
S3150000497014D07A48C078202108437849C870084680
S3150000498080798871002221461D20FDF72BF90D2024
S31500004990FFF742FF02210D20FFF76FFF10BD10B594
S315000049A004466F48406B0121890208436C494863FD
S315000049B06D48403080696F490840012189020843EB
S315000049C06949403188610846C0696A490840012141
S315000049D08902084364494031C861E12252026449B0
S315000049E06048FFF769FF002C14D05E48C07820218C
S315000049F008435C49C87008468079887100222146C0
S31500004A001E20FDF7EFF80E20FFF706FF02210E200D
S31500004A10FFF733FF10BD00BF027980231A40002A3A
S31500004A20FAD0C171704770B506460C46002504E001
S31500004A30615D3046FFF7EFFF6D1C605D0028F7D122
S31500004A4070BD00BF4C490979402211400029F9D0B8
S31500004A504949C871704710B50346002403E0185D44
S31500004A60FFF7EFFF641C185D0028F8D110BD10B5E4
S31500004A7004463B48406B0121890208433849486394
S31500004A803948403000693B49084001218902084302
S31500004A9035494031086108464069364908400121D8
S31500004AA0890208433049403148613348C078F721CC
S31500004AB008403149C8700846C078FB2108402E4995
S31500004AC0C8700020887088714871254840680321A5
S31500004AD089068843012189064018214948602648ED
S31500004AE00078E021084024490870342048700846C0
S31500004AF0807AE0210840C01C1F4988720846C07AA7
S31500004B00FD210840801C1C49C872002C17D00022C9
S31500004B1021461C20FDF766F80C20FFF77DFE0221DA
S31500004B200C20FFF7AAFE2020134908710846C0781A
S31500004B30202108431049C8700846807988710E48BC
S31500004B40C078F721084008300B49C8700846C0787D
S31500004B50FB210840001D0849C87010BD00B0064082
S31500004B600080044000C0064000D00440FFFDFFFE68
S31500004B70C05D0000FFFCFFFE00A006403A4A126836
S31500004B80FF2301331A43384B1A601A465268374BD3
S31500004B901A43354B5A601A46D268344B1A43324B85
S31500004BA0DA601A469268314B1A432F4B9A60304AA4
S31500004BB0526801231B041A432D4B5A601A46526948
S31500004BC001231B041A432A4B5A612A4A526B0123BA
S31500004BD09B051A43274B5A63C27840231A43C27077
S31500004BE0C27804239A43C270002904D1C2781023E4
S31500004BF01A43C27003E0C27810239A43C270427807
S31500004C0042707047014600BF1B4A127820231A40A3
S31500004C10202AF9D1184A917100BF174A12788023C9
S31500004C201A40802AF9D1144A907900BF704700BF14
S31500004C3011490978202211402029F9D1FF210E4A75
S31500004C40917100BF0C490978802211408029F9D161
S31500004C5009498879704700BF027820231A40202A24
S31500004C60FAD181717047000040D00440FFFAFFFF7F
S31500004C7000F10FF8008004400060074010B5D448EA
S31500004C808068012109040843D14988600520FFF79F
S31500004C90B9FFFF20FFF7B6FFC4B2CD484068012137
S31500004CA009040843CA494860204610BD10B500BF34
S31500004CB0FFF7E4FFC007C00F0028F9D1C448806899
S31500004CC0012109040843C24988600620FFF79AFFBC
S31500004CD0BF484068012109040843BD49486000BF38
S31500004CE0FFF7CCFFC007C00F0028F9D110BD70B583
S31500004CF0B7488068012109040843B54988609020B7
S31500004D00FFF780FF0020FFF77DFF0020FFF77AFF07
S31500004D100020FFF777FF5520FFF774FF05025520A7
S31500004D20FFF770FF0543ACB2A948406801210904AA
S31500004D300843A7494860204670BDF7B505461646A4
S31500004D40002E01D10020FEBD0CE0FFF797FF0746BD
S31500004D50FF07FF0F002F00D105E0002400E0641CD0
S31500004D600A2CFCD3F1E700BF9948806801210904A9
S31500004D700843974988600320FFF744FFFF21090491
S31500004D802940080CFFF73EFFFF2109022940080AC7
S31500004D90FFF738FFE8B2FFF735FF002406E0FF20F3
S31500004DA0FFF730FFC1B201980155641CB442F6D337
S31500004DB08748406801210904084385494860012065
S31500004DC0C1E7F8B504460F461646002E01D100206D
S31500004DD0F8BDFFF76BFF7E48806801210904084390
S31500004DE07B4988600220FFF70DFFFF21090421405F
S31500004DF0080CFFF707FFFF2109022140080AFFF709
S31500004E0001FFE0B2FFF7FEFE002503E0785DFFF745
S31500004E10F9FE6D1CB542F9D36D48406801210904BD
S31500004E2008436B49486000BFFFF728FFC007C00F63
S31500004E300028F9D10120CBE7F7B582B0154600244A
S31500004E40002D02D1002005B0F0BD0298C6B2002E9A
S31500004E5011D0FF200130841BAC4205D222460399B3
S31500004E600298FFF7AEFF06E02A4603990298FFF77D
S31500004E70A8FF0120E7E7281BC6B2281B000A0190FD
S31500004E8000270DE0380200190090039A00981118C7
S31500004E90029A1318FF2201321846FFF792FF7F1C71
S31500004EA001988742EED3002E0BD0380200190090ED
S31500004EB0009A039881180298831832461846FFF71D
S31500004EC080FF0120BFE710B5FFF7F0FE404880687D
S31500004ED00121090408433E498860C720FFF792FE76
S31500004EE03B4840680121090408433949486000BF2E
S31500004EF0FFF7C4FEC007C00F0028F9D1012010BD7E
S31500004F0010B50446FFF7D2FE314880680121090436
S31500004F1008432F498860D820FFF774FEFF21090453
S31500004F202140080CFFF76EFEFF2109022140080A06
S31500004F30FFF768FEE0B2FFF765FE254840680121ED
S31500004F40090408432249486000BFFFF797FEC007DF
S31500004F50C00F0028F9D1012010BD10B50446FFF797
S31500004F60A5FE1B488068012109040843184988608A
S31500004F702020FFF747FEFF2109042140080CFFF718
S31500004F8041FEFF2109022140080AFFF73BFEE0B27D
S31500004F90FFF738FE0E4840680121090408430C4912
S31500004FA0486000BFFFF76AFEC007C00F0028F9D1AE
S31500004FB0012010BD70B505460E462C4603E02003C1
S31500004FC0FFF7CBFF641CB442F9D9012070BD000085
S31500004FD000F10FF84E48C06B0121C90608434C4941
S31500004FE0C8630C204B4988600846C06810210840F9
S31500004FF04849C86000208861C86104208862086248
S3150000500048621F2008604860704700B5FFF7E2FF5E
S315000050104048406A402108433E4948620846406A83
S31500005020802108433B49486200BF3A48406A8021D4
S3150000503008400028F9D13748406A40210840002836
S3150000504001D0012000BD002232484030C0688018DF
S3150000505082B2304840308068801882B22D48403095
S315000050604068801882B22B4840300068801882B2AF
S315000050702848C06B801882B22648806B801882B29E
S3150000508052100120C00302432248C2620022214876
S315000050904030C06A801882B21E484030806A80184C
S315000050A082B21C484030406A801882B219484030AB
S315000050B0006A801882B217484030C069801882B2F0
S315000050C0144840308069801882B252100120C00313
S315000050D00243104802630020B4E7402101430D4A11
S315000050E0116070471F200B490860704708488069A7
S315000050F08021084306498861084680690009000145
S315000051008861084680690E21084301498861704715
S315000051100080044000B0034001464448C07A0122A2
S3150000512012068018C2B24148C2720120404A10706D
S31500005130704740493D4841603F4901613F4901622E
S3150000514004218160032181618162C169012000041B
S3150000515001433648C161704710B539A000F059FEC9
S315000051603A480068FF21013108433849086037484A
S315000051704038C06B0221084334494039C8630020D7
S315000051803349087048708870C870284880680121C3
S3150000519009060843254988600846816901200006FA
S315000051A0014322488161816A0120000601431F48AC
S315000051B0816228481D49086000211C48016101627E
S315000051C02449091F41612349103941621021816038
S315000051D008218161816220A000F01BFE214913484D
S315000051E0C1602149C16121A000F013FE1E49283982
S315000051F00E48C162A82016490870802048701EA07B
S3150000520000F007FE12488078C0210840802108433C
S315000052100F49887000221B491020FCF7E3FC002090
S31500005220FFF7FAFA18A000F0F4FD10BD0081004067
S3150000523030F0FF1F32F0FF1F778C0000748C0000E7
S31500005240737461727420342E310A0D00408004405C
S315000052500010024010B00340737461727420342E43
S31500005260320A0D002400ACE0A800D26073746172AB
S315000052707420342E330A0D00737461727420342E38
S31500005280340A0D0019510000737461727420342EB3
S31500005290350A0D0010B504464D48006880210843C4
S315000052A04B490860C1200860FFF743FFFBF7BBFED0
S315000052B0022811D100F05EFE01280DD14548007884
S315000052C0401C4449087008460078142804DD002074
S315000052D008700120FBF7AAFE3F48FDF70AF810BD4B
S315000052E070B506460C463D48806B012108433B4994
S315000052F088633B480068032189048843384908606D
S31500005300084600680121C904084335490860354844
S3150000531040680721090288433249486008464068C8
S31500005320891508432F4948602948406878218843F1
S315000053302749486008464068486008464068042196
S315000053400843234948600846406880088000486052
S3150000535008464068A107890F08431D494860002C8C
S3150000536002D121A000F055FD012C02D128A000F0A9
S3150000537050FD022C02D130A000F04BFD032C02D1CF
S3150000538037A000F046FDB0B21149886008460068B3
S31500005390C02108430E4908601C20FFF73DFA002291
S315000053A039492C20FCF71EFC00210B48FCF7F0FEC7
S315000053B00546002D00D103E0602134A000F020FD59
S315000053C070BD034800680121084301490860704721
S315000053D00000044038F0FF1F0C010020008004404C
S315000053E00070044000B004400A204C50544D522036
S315000053F0436C6F636B20736F7572636520697320EE
S31500005400746865204D43474952434C4B200A0D00B2
S315000054100A204C50544D5220436C6F636B20736FBF
S315000054207572636520697320746865204C504F431C
S315000054304C4B200A0D0000000A204C50544D5220BF
S31500005440436C6F636B20736F75726365206973209D
S31500005450746865204552434C4B3332200A0D0000D8
S315000054600A204C50544D5220436C6F636B20736F6F
S315000054707572636520697320746865204F534345D0
S3150000548052434C4B200A0D0095520000636F6D6D20
S315000054906F6E5C647269766572735C6C70746D7243
S315000054A05C6C70746D722E6300000000D548006954
S315000054B004218843D349086130BF7047D148006949
S315000054C004210843CF49086130BF7047CD480069C1
S315000054D004218843CB49086130BF70470021CA4A7E
S315000054E0117011464978C908C900517011464978AA
S315000054F0517011468978C0229143C34A9170114672
S3150000550089780143917011464878BE490969042299
S315000055101143BC4A116130BF70470020BA4AD278A5
S315000055205206520E042A00D114202022B64B1A70BD
S315000055301A46527860239A43B34B5A701A465278E9
S3150000554040231A43B04B5A70002107E0AF4A9278C5
S3150000555004231A40042A00D003E0491CAC4A9142B5
S31500005560F4DB00BFA94A927804231A40042A00D12A
S315000055702420A54AD2785206520E042A01D1A24A04
S31500005580D0787047A049C9784906490E042918D130
S315000055909D494978602291439B4A517000200DE055
S315000055A09949C9784906490E7F2906D197498978CC
S315000055B004221140042900D102E0401CFF28EFDB41
S315000055C000BF704708B593480069400840009149FC
S315000055D0086120208C49087008464078C008C00041
S315000055E048700846407802210843874948700846B3
S315000055F0407800900098401C009082480069042181
S3150000560008438049086130BF08BD08B508207E49B7
S31500005610087008464078C008C000487008464078C0
S31500005620032108437849487008464078009000985E
S31500005630401C0090734800690421084371490861C1
S3150000564030BF08BD08B502206F490870084640788B
S31500005650C008C000487008464078042108436A49DB
S315000056604870032088700846807800900098401C97
S31500005670009064480069042108436249086130BF0C
S3150000568008BD08B502206049087008464078C00881
S31500005690C000487008464078042108435A494870BB
S315000056A0022088700846807800900098401C009080
S315000056B054480069042108435249086130BF08BDB7
S315000056C008B502205049087008464078C008C00056
S315000056D0487008464078042108434B494870012029
S315000056E088700846807800900098401C00904548D5
S315000056F00069042108434349086130BF08BD0146DB
S315000057000222414B1A701A46D2785206520E042AC9
S3150000571012D11A46527860239A433B4B5A700020A6
S3150000572007E0394AD2785206520E012A00D102E029
S31500005730401CFF28F5DB00BF334A5278D208D2005E
S31500005740314B5A701A46527804231A432E4B5A701C
S315000057501A469278D208D2009A701A469278202376
S315000057609A43294B9A701A4692784B011A43264B54
S315000057709A701A469178234A126904231A43214BD8
S315000057801A6130BF704708B502211F4A11701146D1
S31500005790C9784906490E042912D111464978602272
S315000057A09143194A5170002007E01749C978490604
S315000057B0490E012900D102E0401CFF28F5DB00BF9D
S315000057C011494978C908C9000F4A517011464978EC
S315000057D0042211430C4A517011468978C908C90040
S315000057E09170202191701146897800910099491C89
S315000057F000910449096904221143024A116130BF2C
S3150000580008BD000000ED00E000E0074000D00740C2
S315000058101027000000E000E0F8B507460026BDA00E
S3150000582000F0F7FAC74804680DE00026656905E050
S31500005830F0002958C4A000F0ECFA761CF0002858B5
S315000058400028F5D12469002CEFD10020F8BDF7B56A
