S3150000000000300020110400005904000061040000C3
S315000000106104000061040000610400006104000046
S315000000206104000061040000610400006104000036
S3150000003061040000610400006104000077630000B1
S315000000407763000077630000776300007763000042
S315000000507763000077630000776300007763000032
S315000000607763000077630000776300007763000022
S315000000707763000077630000776300007763000012
S315000000807763000077630000776300007763000002
S3150000009077630000776300007763000077630000F2
S315000000A077630000776300007763000077630000E2
S315000000B077630000776300007763000077630000D2
S31500000400FFFFFFFFFFFFFFFFFFFFFFFF7EFFFFFF77
S31500000410EFF3088080F30988EFF314800224204369
S3150000042080F31488BFF36F8F00F00EF880F308880E
S31500000430704700000348854605F0F6FE0048004771
S315000004405B0F00000030002001488047014800474C
S31500000450630400003504000010B500F01CFD10BD5B
S3150000046070476748674988600020674908606748A1
S31500000470806B1B21490208436449886301200004FC
S3150000048062494031486061484068012109040843D7
S315000004905E4948605E480068012189048843490036
S315000004A008435B490860594840680121490688436A
S315000004B049100843554948605648806856490840DF
S315000004C0544988600846C068534908405149C86085
S315000004D05248007AF3210840022108434F49087226
S315000004E00846407865210840252108434B49487055
S315000004F080204B4908709A20484908700846C07801
S31500000500C006C00EC870032008710020487100BFE5
S315000005104248807910210842FAD100BF3F488079CD
S315000005200C2108400828F9D140203C49487100BFF9
S315000005303A4880790C2108400828F9D100BF37488D
S31500000540807940210842FAD01A203449087000BF49
S31500000550324880790C2108400C28F9D1704710B533
S31500000560304802F095F8002801D000BFFEE7294880
S31500000570403800690121090688430721090208431A
S3150000058024494039086128484079E0210840264935
S31500000590487108460079F821084023490871234824
S315000005A00078DC210840502108432049087008469D
S315000005B04078DC210840402108431C494870084621
S315000005C08078E6210840194988700020184908708B
S315000005D010480069012109068843072109020843DA
S315000005E00C49086113480321090240184068FF219D
S315000005F0090488430F49032212028918486010BD76
S315000006000000000000ED00E000810440008004408E
S315000006100070044040900440FFF8FFFE0040064092
S3150000062000500640A472000000F0074000D00740CA
S3150000063000E0074000E100E0F8B507463C4600252B
S31500000640FB48C678C078ED2108403043F849C870A9
S31500000650084680782021084020287AD1F4488078FE
S315000006601021084010287ED1F007C00F19D0F0489D
S315000006708078DF210840EE49887008468078EF21AF
S315000006800840EB4988700020A081E0802078FE2198
S315000006900840207020780621084320700820054372
S315000006A0A2E020780221084255D0A089002809D06E
S315000006B0A089401EA0812169481C20610878DC4978
S315000006C0087191E0E08800282CD0207804210842A7
S315000006D018D0E088012806D1D5488078082108433B
S315000006E0D349887005E0D2488078F7210840D04980
S315000006F08870CF488078EF210840CD498870084639
S31500000700007971E0CA48807804210843C849887096
S31500000710607901210843C6490871207804210843FD
S31500000720207061E02078FE21084020706078012862
S315000007300BD1BF488078DF210840BD498870084644
S315000007408078EF210840BA498870E06900F09BFB89
S315000007504AE035E007E02079B549087120780221A2
S315000007600843207040E0E088401EE080E0880028D2
S3150000077009D0E088012816D1AD48807808210843C1
S31500000780AB4988700FE02078FE2108402070A84809
S315000007908078DF210840A649887008468078F721CE
S315000007A00840A3498870A2480179A268501CA0603D
S315000007B01170E088002817D1E06900F068FB13E0AB
S315000007C01020064210D00020A081E0800120607039
S315000007D02078FE210840207095488078EF21084057
S315000007E09349887004200543002D05D0608828436E
S315000007F06080E06900F050FBF8BD70B505468D4C91
S31500000800E561182001F0B6F8A06122468A49182051
S3150000081001F0F5F86061202020703A202071012057
S3150000082060700020E080A08160808448406B402199
S3150000083008438249486300207D49887040208871BA
S315000008400220C8707E48406A7E4908400521090298
S3150000085008437B4948620846006A7A4908400521F0
S3150000086009020843764908627748032109024018BD
S315000008708068C009C001802108437349032212021F
S315000008808918886070480068FF21013108436E4965
S315000008900860002066494871887108200872252082
S315000008A04870084680784006400E803088700846BA
S315000008B08078402108435E49887064484460204639
S315000008C070BD10B504460020594988701820A269E9
S315000008D0616901F094F800205C4948605748406B14
S315000008E0402188435549486310BDFFB581B006468F
S315000008F00F4615463446002D02D1002005B0F0BD46
S31500000900607801280ED14A48C07820210840202866
S3150000091006D02078C007C00F02D1A08900280AD0CF
S315000009200820EBE72078C007C00F02D1A089002875
S3150000093001D00820E2E700F0B6FF20780121084345
S3150000094020702761A5810498607039488078EF216E
S3150000095008401030364988700846807820210840C3
S31500000960202806D13248807804210843304988700F
S3150000097006E02F488078DF21084020302C49887017
S3150000098020782021084207D02078062108432070CD
S3150000099020792749087116E020781021084207D0EF
S315000009A02078F921084020706079214908710AE011
S315000009B020780821084206D02078022108432070BA
S315000009C000201B49087100F05BFF002096E7FFB589
S315000009D081B0074615461E463C46002D02D1002032
S315000009E005B0F0BD002E01D18120F9E7207808215D
S315000009F0084201D00920F3E7607801280ED10C489F
S31500000A00C07820210840202806D02078C007C00FD3
S31500000A1002D1E08800281BD00820E1E72078C00733
S31500000A20C00F02D1E088002812D00820D8E70000C5
S31500000A30006006405CF0FF1F39060000008004409D
S31500000A4040D00440FFFDFFFE00E100E0BC000020B6
S31500000A5000F029FF20780121084320700298A06049
S31500000A60E58066704E488078EF21084010304C498A
S31500000A7088700846807820210840202806D14848FA
S31500000A808078042108434649887006E04448807807
S31500000A90DF21084020304249887020782021084212
S31500000AA009D02078062108432070207901210843C7
S31500000AB03B4908710AE020781021084206D02078C8
S31500000AC0F9210840207060793549087100F0D8FE98
S31500000AD0002085E730B503460C4619460878C0075E
S31500000AE0C00F01D0082030BD002C04D0012C12D03C
S31500000AF0022C33D129E07F2A01D98920F3E7500659
S31500000B00000E08710878E725284008700878202527
S31500000B102843087024E02348824201D98920E2E76D
S31500000B200A715004000E487148790625284048711C
S31500000B304879F025284348710878D7252840087059
S31500000B4008781025284308700AE00878CF25284041
S31500000B500870087808252843087001E08D20C2E750
S31500000B6000BF0020BFE770B504460D46264600F0DC
S31500000B709AFE708828800020708000F081FE002098
S31500000B8070BD10B5024613460548C07820242040A3
S31500000B90202801D0012000E000200870002010BDB0
S31500000BA000600640FF03000010B5044600F069FD32
S31500000BB010BD38B50546002000F05AF804466946CF
S31500000BC0002000F064F82046009905F007F838BDCB
S31500000BD070B5044625464248006901210904884348
S31500000BE03F490861A868FFF7DFFF70BD70B505468D
S31500000BF03C4CA5600F2000F0BDFE606022463A49DD
S31500000C000F2000F0FCFE20600020354908613748BF
S31500000C104861002088613648006ADF21090688435A
S31500000C200121490708433249086206202C49086118
S31500000C3030480460204670BD70B5044625462848F5
S31500000C40006940084000264908610F206A68296843
S31500000C5000F0D5FE00202749086070BD01462048F7
S31500000C60006940084000401C1D4A10610020704782
S31500000C7001462148704702462048814201D9982002
S31500000C807047481E0146164B58610020F8E7034698
S31500000C9013484269501C0246086008680002000AB0
S31500000CA008600020704710B5044600F0FCFD0C48B3
S31500000CB00069C007C00F0BD0094800694008400012
S31500000CC0074908610846006940084000401C086161
S31500000CD000F0D6FD002010BD01460148806970472E
S31500000CE000E000E0D4000020D10B00007FA9030043
S31500000CF000ED00E0BC000020006CDC02FFFFFF00FE
S31500000D0001464D4841604D4AD26B01231B061A43EA
S31500000D104A4BDA6300224A4B1A605A60DA600023B3
S31500000D20474A5361D3615362D3625363454A444B86
S31500000D309A602C23424AD361002313622C23D36288
S31500000D40002313632C235363002393633E4A526BA1
S31500000D503E4B1A4003231B021A433B4B5A631A4667
S31500000D60D26B3A4B1A4003231B021A43364BDA6303
S31500000D70374A5269374B1A4001239B021A43344BB8
S31500000D805A6108220260344A5061704701462C4A73
S31500000D90126898239A432A4B1A6000222E4B5A61F6
S31500000DA0704701460A462648006898239843136808
S31500000DB01843234B186000207047014620480068FE
S31500000DC0982290431E4A10600020704701461C4836
S31500000DD04068704730B50346022901D9822030BDEC
S31500000DE01E48405C002801D00920F8E794B2144858
S31500000DF00C301B4D6D5CED00401944601148824279
S31500000E0001D99820EBE70020E9E710B5034602294F
S31500000E1001D9822010BD1148405C002801D009206C
S31500000E20F8E707480C300E4C645CE4000019406893
S31500000E3010600020EEE700000CF0FF1F0080044069
S31500000E4000800340FFFF000040D00440FFFBFFFE90
S31500000E5000C00440FFFCFFFEBC0000203B73000006
S31500000E603873000010B504460C480078012148404C
S31500000E700A49087008460078002803D00848006828
S31500000E80FFF79BFF10BD014601220A70704701461D
S31500000E9001224A70704770477047000020F0FF1F1C
S31500000EA018F0FF1FFFB581B006460C461D460A9F87
S31500000EB0002020700023012203A93046FFF715FD0C
S31500000EC000BF20780028FCD02078002801D105B08A
S31500000ED0F0BD0020607001232A4639463046FFF7F0
S31500000EE076FD00BF60780028FCD000BF694630461A
S31500000EF0FFF747FE684600780128F7D1607800289A
S31500000F0000D1E4E70120E2E7F0B585B007460C46DC
S31500000F1016461D46684606702A46401C0A9904F085
S31500000F2087FE0020207001236A1C69463846FFF7B9
S31500000F30DCFC00BF20780028FCD000BF04A938469E
S31500000F40FFF71FFE6846007C0128F7D120780028AD
S31500000F5001D105B0F0BD0120FBE7FFF700FB01F072
S31500000F6018FC00BFFEE7000000B591B05FA003F0DB
S31500000F708BFF6DA36EA2402101A805F095FA01A989
S31500000F8072A003F081FF74A375A2402101A805F0A9
S31500000F908BFA01A96DA003F077FF78A37AA240210E
S31500000FA001A805F081FA01A968A003F06DFF7D484C
S31500000FB07DA24021036801A805F076FA01A963A085
S31500000FC003F062FF7EA2402101A805F06DFA01A997
S31500000FD05EA003F059FF7BA2402101A805F064FA48
S31500000FE001A95AA003F050FF7EA003F04DFF11B0F7
S31500000FF000BD38B5044603F0BDFFFFF7B5FF072077
S31500001000C001874B002202210090104602F06BFDC2
S315000010100720C001834B002204210090104602F0F5
S3150000102062FD38BD1CB560E001A8032301227E499C
S3150000103000907E480068FFF735FF002801D10120A7
S3150000104000E000200646002E4CD1794800780028A2
S3150000105048D178480068FFF7A4FE6A460420105677
S315000010600A2104F0D1FD041E01DB214600E06142A5
S31500001070012088407D21C900484305462A460021B3
S315000010806C480068FFF7A6FE6A46052010560A213E
S3150000109004F0BAFD041E01DB214600E06142012096
S315000010A088407D21C900484305462A4601216148FA
S315000010B00068FFF78FFE6A46062010560A2104F0E4
S315000010C0A3FD041E01DB214600E0614201208840A9
S315000010D07D21C900484305462A4602215548006835
S315000010E0FFF778FE012000F027F99DE70D0A3D3D48
S315000010F03D3D3D3D3D3D3D3D3D3D3D3D3D3D3D3D1A
S315000011003D3D3D3D3D3D3D3D3D3D3D3D3D3D3D3D09
S315000011103D3D3D3D3D3D3D3D3D3D3D3D3D3D3D3DF9
S315000011203D3D0D0A0000000056312E302E300000E5
S315000011302A204D51586C6974652052544F53312002
S315000011402020203A205B25735D000000252D3531D7
S31500001150732A0D0A00000000312E302E302E30008A
S315000011602A204669726D77617265205665727369C9
S315000011706F6E3A205B25735D000000004652444DB9
S315000011805F5245565F4500002A20486172647761C8
S3150000119072652056657273696F6E3A205B25735DC2
S315000011A0000000005C7300002A20437265617465CC
S315000011B0642044617465202020203A2025730000B5
S315000011C02A0000002A2028432920434F505952491B
S315000011D04748542032303134204652444D204B4C3F
S315000011E032355A003D3D3D3D3D3D3D3D3D3D3D3D5C
S315000011F03D3D3D3D3D3D3D3D3D3D3D3D3D3D3D3D19
S315000012003D3D3D3D3D3D3D3D3D3D3D3D3D3D3D3D08
S315000012103D3D3D3D3D3D3D3D0D0A0D0A00000000B2
S31500001220F0000020A006002021F0FF1F14F0FF1F91
S3150000123020F0FF1F18F0FF1FFEB50446FC480568A6
S315000012402F46FF372937FF203130405B002828D052
S31500001250FF2029304659FF203130405B401C019069
S315000012601AE0E16BA06BF36BB26B801A994101D265
S3150000127001200AE0F16BB06BE36BA26B801A994117
S3150000128002D20020C04300E0002000900098002811
S3150000129000DB05E0374636680198401E0190E0D134
S315000012A000BF6068216801604860386820603C6063
S315000012B067604460FF203130405B401C81B2FF20F4
S315000012C031304153FF210131A0680843A06004F08A
S315000012D0E1FFFEBD70B50646D5480468002E03D171
S315000012E00C2002F0D0F870BDE569E069806C00283A
S315000012F000D172B6E069806C401CE16988642A46B8
S3150000130038322146FF311131304603F015F82846B0
S31500001310FFF792FFE069806C00280BD0E069806CD3
S31500001320401EE169886405D1208B002801D062B691
S3150000133000E062B600BFD6E770B50546BC48046853
S31500001340002D00D170BDE669E069806C002800D1EF
S3150000135072B6E069806C401CE1698864E01DF93072
S3150000136002694069002152194841B263F063304670
S31500001370FFF762FFE069806C00280BD0E069806CA3
S31500001380401EE169886405D1208B002801D062B631
S3150000139000E062B600BFD5E770B50546A44804680C
S315000013A0002D03D10C2002F06EF870BDE6692846C8
S315000013B007C83264F163B063E069806C002800D12D
S315000013C072B6E069806C401CE16988643046FFF7BC
S315000013D033FFE069806C00280BD0E069806C401E0A
S315000013E0E169886405D1208B002801D062B600E04F
S315000013F062B600BFD9E770B506460C461546002E04
S3150000140003D0002C01D0002D01D10C2070BD2A463E
S315000014102146304602F0DAFF0020F7E770B50546B0
S315000014200E461446002D01D0002E05D1002C01D009
S31500001430012020607F4870BD22463146284602F0D2
S31500001440E5FFF8E770B5064679480568304602F0CC
S315000014506CF80446002C00D170BD00F024FAFF2180
S315000014600131A068084214D06068216801604860B4
S31500001470FF203130405B401E81B2FF2031304153A6
S31500001480FF210131A0688843A0600321A0680843BA
S31500001490A06000F0F5F900BFDEE770B505462C4602
S315000014A06348066800F0FFF9FF210131A068084291
S315000014B014D06068216801604860FF203130805B8D
S315000014C0401E81B2FF2031308153FF210131A068D7
S315000014D08843A0600321A0680843A06000F0D0F90B
S315000014E070BD70B50546002D00D170BD504804682A
S315000014F0E069806C002800D172B6E069806C401CFF
S31500001500E1698864E01DF9304269016980696A60B1
S315000015102960A860FF2049300059002806D0FF2224
S315000015204D321059121F11598847A860E069806C26
S3150000153000280BD0E069806C401EE169886405D103
S31500001540208B002801D062B600E062B6284602F081
S315000015501DFF00BFC9E770B50546002D00D170BD5F
S3150000156033480468E01DF9304269016980696A60A0
S315000015702960A860FF2049300059002806D0FF22C4
S315000015804D321059121F11598847A860284602F09B
S31500001590FDFE00BFE3E710B525480468FF2049308B
S315000015A00059002806D0FF224D321059121F11593A
S315000015B0884710BD0020FCE770B50546002D00D118
S315000015C070BD1B480468E069806C002800D172B6C3
S315000015D0E069806C401CE1698864E01DF93042696D
S315000015E0016980696A602960A860FF204930005956
S315000015F0002806D0FF224D321059121F1159884774
S31500001600A8602A462146FF311D31284602F094FE85
S31500001610E069806C002810D0E069806C401EE169AA
S3150000162088640AD1208B002806D062B605E0000047
S3150000163024F0FF1FFFFFFF7F62B6284602F0A6FEDA
S3150000164000BFBDE788480168FF2045304058704715
S3150000165010B50246002A01D10C2010BD00290AD07F
S31500001660002090608148046840680023641858414F
S315000016701460506003E07D4C19CC19C20C3A00206E
S31500001680EBE7F8B578480468E01DF9300169406970
S315000016900022491C5041E21DF93211615061E06996
S315000016A0806C002800D172B6E069806C401CE1694C
S315000016B08864FF2049300059002808D0FF224D32A7
S315000016C01059121F11598847FF2119310851204618
S315000016D0FF30113002F05AFEFF203130065B002E3B
S315000016E05BD0FF2029300559761C52E02F68E21D99
S315000016F0F932E96BA86B13695269C01A914101D29C
S3150000170001200CE0E11DF93108694969EB6BAA6B10
S31500001710801A994102D20020C04300E000200090C8
S315000017200098002833DBFF203130005B401E81B279
S31500001730FF20313001536868296801604860FF2145
S315000017400131A8688843A8608900A86808420BD0C0
S31500001750A8688843A860686B296B01604860E86ADE
S315000017600089401EE96A0881E869616A884201D9F0
S31500001770E86960620220A860E86940686860686895
S315000017800068286068680560E869456000E003E075
S315000017903D46701E0600A9D100BFE069806C002896
S315000017A00BD0E069806C401EE169886405D1208B0E
S315000017B0002801D062B600E062B68B208000005996
S315000017C0002803D08B218900085980470920800111
S315000017D020188068002804D00921890161188868CA
S315000017E08047F8BD70B505461F480468E069806CFF
S315000017F0002800D172B6E069806C401CE1698864FB
S315000018002246FF321D3211460C39284602F0DEFD13
S31500001810E069806C00280BD0E069806C401EE169AD
S31500001820886405D1208B002801D062B600E062B63C
S3150000183070BD0D4A1168FF223532505070470A4B71
S315000018401A68FF23493398501B1D99507047064A62
S315000018501168FF2245325050704703480168FF2047
S315000018603D3040587047000024F0FF1F68730000A9
S3150000187008B502480068009000BFFEE724F0FF1F8D
S31500001880B0490868C169896C00290BD0C169896CA7
S31500001890491EC269916405D1018B002901D062B647
S315000018A000E062B67047A7490868C169896C0029DB
S315000018B000D172B6C169896C491CC26991647047CE
S315000018C070B505469F480668F469FFF7ECFFA06807
S315000018D00B280BD00B20A060E5624121204602F0C8
S315000018E0FCFB606821680160486000BFFFF7C8FF25
S315000018F070BD94480168886A704770B5054691487E
S315000019000468A06B002804D1182001F0BCFD00205B
S3150000191070BDE06AA84202D8206BA84204D2142007
S3150000192001F0B1FD0020F3E7E06A2D1A0C206843B0
S31500001930A16B08184068EBE770B505468148046856
S31500001940A06B002804D1182001F09DFD002070BD79
S31500001950E06AA84202D8206BA84204D2142001F003
S3150000196092FD0020F3E7E06A2D1A0C206843A16B74
S315000019700858ECE770B5054672480468A06B002865
S3150000198004D1182001F07FFD002070BDE06AA84256
S3150000199002D8206BA84204D2142001F074FD002066
S315000019A0F3E7E06A2D1A0C206843A16B08188068DB
S315000019B0EBE764480168088B704770B50346614DD4
S315000019C02968886A8B628A6B002A0CD0CE6A0D6BF6
S315000019D0AD1BAC1C04E01568854200D113600C32C7
S315000019E0651E2C00F7D170BD10B556480468A08A54
S315000019F001210843A0825448FFF7DFFF10BDF7B569
S31500001A0082B005460F464F480468A06B002805D1F2
S31500001A10182001F038FD002005B0F0BDE06AA842AC
S31500001A2002D8206BA84204D2142001F02CFD00201D
S31500001A30F2E7E06A281A0C225043A16B0E18FFF752
S31500001A4032FF3068019037600498B060FFF718FFE6
S31500001A500198E1E710B53B480468A08A40084000B9
S31500001A60A0823A48FFF7A9FF10BDF8B504460E4616
S31500001A70002734480568A86B002804D1182001F017
S31500001A8002FD0020F8BDE86AA04202D8286BA042F9
S31500001A9004D2142001F0F7FC0020F3E7E86A241AC8
S31500001AA00C206043A96B081847680C206043A96B9B
S31500001AB0081846603846E5E7F8B504460E4621485C
S31500001AC00568A86B002804D1182001F0DCFC002072
S31500001AD0F8BDE86AA04202D8286BA04204D21420BE
S31500001AE001F0D1FC0020F3E7E86A241A0C206043D9
S31500001AF0A96B081887680C206043A96B08188660D4
S31500001B003846E5E770B502460C46944201D20C20F1
S31500001B1070BD0C4801680E4EB82046500D488862CC
S31500001B20A01A451C0C4B8B63CA620C6304E009487F
S31500001B3018609A60521C0C3328466D1E0028F6D198
S31500001B4000BFE5E724F0FF1F914100000D410000B2
S31500001B5077630000C118000058F9FF1FF0B504466E
S31500001B600D4616462146EA4802680846083088604F
S31500001B70C86000200882488208461430486188619F
S31500001B8000208883C8834E628D62C8620846403052
S31500001B90886337466F43BF00886BC019C863886B7C
S31500001BA00863886B4863232000018058002812D1FF
S31500001BB023200001101823273F01B850384610187B
S31500001BC0D7197860002023273F01D71938812327AA
S31500001BD03F01D7197881CF48086223200001835836
S31500001BE005E08B4202D141200001F0BD1B68232095
S31500001BF0000110188342F4D1232000011018406818
S31500001C0007680F6023200001101840680160232038
S31500001C100001101840684860796023200001101800
S31500001C200089401C23273F01D71938810020DCE7B3
S31500001C3070B504460D461646002332462946204610
S31500001C40FFF78CFF70BDFFB583B01E46039DB048FD
S31500001C500768FFF728FEAF49286A884205D0FFF7D4
S31500001C600FFE0F20C00107B0F0BDE86A002856D16C
S31500001C700421059808424DD0FC6947E0A648A060BB
S31500001C8028461430E0626068216801604860A969EE
S31500001C900868206321463031AA691160AA69626327
S31500001CA04160A88B401CA883002E03D118210598FB
S31500001CB0084229D0002E09D0F81DF9300269406982
S31500001CC0002192194841A263E06313E008210598B8
S31500001CD0084207D00C98426801688068E263A163F5
S31500001CE0206407E0224638323946FF3111310C981C
S31500001CF002F022FB2046FFF79FFAE06A002805D093
S31500001D00FFF7BEFD8548AEE704F0C4FAE86A00288E
S31500001D10B4D004E0FFF7B4FD8048401EA3E7686B2B
S31500001D20019004980090686A401C029009E00198AE
S31500001D300168009801600198001D01900098001D3F
S31500001D4000900298401E0290F1D1696A8900686B82
S31500001D5040186863E96B686B884201D3A86B6863B7
S31500001D60E86A401EE862288A00281ED0AC686068CF
S31500001D70216801604860288A401E2882303C002085
S31500001D80E062E069796A884201D9E06978620220F6
S31500001D90A060E06940686060606800682060606814
S31500001DA00460E069446004F069FAFFF769FD002009
S31500001DB059E7F7B584B01746049D55480668FFF7FE
S31500001DC072FD5449286A884205D0FFF759FD0F2055
S31500001DD0C00107B0F0BDA96AE86A884227D3F807B0
S31500001DE0C00F1FD0F46918E04B48801CA06028463D
S31500001DF00830E0626068216801604860E968086848
S31500001E00206321463031EA681160EA686263416006
S31500001E10288A401C288204F03DFAA96AE86A8842AA
S31500001E20E2D204E0FFF72CFD3C48801ED1E7286B88
S31500001E30019005980290686A401C039009E0029898
S31500001E400168019801600298001D02900198001D2A
S31500001E5001900398401E0390F1D1696A8900286BAE
S31500001E6040182863E96B286B884201D3A86B286366
S31500001E70E86A401CE862A88B00283FD06C6960685D
S31500001E80216801604860A88B401EA883303CFF2172
S31500001E900131A068084214D060682168016048607A
S31500001EA0FF203130805B401E81B2FF2031308153EC
S31500001EB0FF210131A0688843A0600321A068084380
S31500001EC0A0600020E062E069716A884201D9E06999
S31500001ED070620220A060E069406860606068006827
S31500001EE0206060680460E06944600220074202D016
S31500001EF004F020FA07E004F0C1F904E002200742EA
S31500001F0001D004F017FAFFF7BBFC002061E70000E0
S31500001F1024F0FF1F736D776C310400008307000007
S31500001F20FFB581B004460F46FE480568A761204606
S31500001F300830A060E060002121826182FFF7B3FCD7
S31500001F400398002820D1E820465908E0A64205D18A
S31500001F50FFF796FC4120000105B0F0BD3668284623
S31500001F60E8308642F2D1EC21495908682060EC211C
S31500001F7049590C60EC21495961604460F020405B8E
S31500001F80401C81B2F0204153E7486061FFF778FCBE
S31500001F900020E1E770B504460D4600231A4629469F
S31500001FA02046FFF7BDFF70BD70B504460D46002301
S31500001FB0012229462046FFF7B3FF70BDF8B5054656
S31500001FC0D8480668FFF76FFCD7496869884203D08E
S31500001FD0FFF756FC1F20F8BD0020686134E0AC68AE
S31500001FE06068216801604860288A401E2882303C6B
S31500001FF0FF210131A068084214D0606821680160A1
S315000020004860FF203130805B401E81B2FF203130B6
S315000020108153FF210131A0688843A0600321A06895
S315000020200843A060E069716A884201D9E06970627C
S315000020300220A060E0694068606060680068206017
S3150000204060680460E0694460288A0028C7D1E820F7
S3150000205087590DE0AF420AD1686829680160486077
S31500002060F020805B401E81B2F020815304E03F687F
S315000020703046E8308742EDD100BFFFF701FC04F09F
S31500002080FDF80020A7E710B5044600212046FFF71B
S3150000209095FF10BD10B50246A2480168A24C5069D2
S315000020A0A04201D0002010BDC869806C002800D174
S315000020B072B6C869806C401CCC69A064906900281F
S315000020C001DC002303E09069401E90610123C8698A
S315000020D0806C00280BD0C869806C401ECC69A06457
S315000020E005D1088B002801D062B600E062B618461A
S315000020F0D9E770B506468B4805688B4970698842F2
S3150000210001D01F2070BDE869806C002800D172B62E
S31500002110E869806C401CE9698864B06900283CDB8A
S31500002120308A002839D0B468606821680160486048
S31500002130308A401E3082303CFF210131A0680842BF
S3150000214014D06068216801604860FF203130405B30
S31500002150401E81B2FF2031304153FF210131A0687A
S315000021608843A0600321A0680843A0600020E062C5
S31500002170E069696A884201D9E06968620220A06064
S31500002180E0694068606060680068206060680460BC
S31500002190E069446004F072F802E0B069401CB06186
S315000021A0E869806C00280BD0E869806C401EE969FC
S315000021B0886405D1288B002801D062B600E062B69B
S315000021C000209FE7F3B581B0064656480768002110
S315000021D00298016000203060388B002801D00D2065
S315000021E0FEBDFFF760FB31463846E83001F020F8C7
S315000021F00546002D01D02846F2E7E820C459F02014
S31500002200C05B00900FE048496069884201D01F25F5
S315000022100EE020460830029901F00AF80546002D26
S3150000222000D005E024680098411E00910028EAD1FC
S3150000223000BFFFF725FB002D00D034602846CFE70E
S3150000224070B5044637480568288B002801D00D2054
S3150000225070BD35496069884201D01F20F8E7E869FA
S31500002260806C002800D172B6E869806C401CE96970
S315000022708864A069002819DCEE692C48B060204605
S315000022800830F0627068316801604860E16808688B
S31500002290306331463031E2681160E2687263416052
S315000022A0208A401C208203F0F5FF02E0A069401E50
S315000022B0A0611D496069884203D0FFF7E1FA1F203B
S315000022C0C6E7E869806C00280BD0E869806C401E80
S315000022D0E969886405D1288B002801D062B600E040
S315000022E062B60020B4E770B505460C460F48A060FC
S315000022F028460830E0626068216801604860E96845
S315000023000868206321463031EA681160EA68626332
S315000023104160288A401C28822046FEF78DFFE06A2D
S31500002320002805E024F0FF1F6D73776C2B04000076
S3150000233001D0372070BD0020FCE7F3B581B005461B
S315000023407C480468208B002801D00D20FEBD7A4908
S315000023506869884201D01F20F8E7E069806C002890
S3150000236000D172B6E069806C401CE1698864A86996
S3150000237000280EDCE669324638322146FF3111313B
S31500002380029801F0D9FF31462846FFF7ACFF074611
S3150000239003E0A869401EA86100276749686988426A
S315000023A003D0FFF76DFA1F20D0E7E069806C0028A4
S315000023B00BD0E069806C401EE169886405D1208BF2
S315000023C0002801D062B600E062B63846BEE7F8B52E
S315000023D004460F4657480668308B002801D00D206A
S315000023E0F8BD55496069884201D01F20F8E7F069B9
S315000023F0806C002800D172B6F069806C401CF169CF
S315000024008864A06900282CDCF569002F1AD14B4896
S31500002410A86020460830E86268682968016048605C
S31500002420E1680868286329463031E2681160E2688D
S315000024306A634160208A401C208203F02BFF002043
S31500002440009013E0F01DF930026940690021D219AD
S315000024504841AA63E86329462046FFF744FF0090F7
S3150000246004E0A069401EA061002000903249606926
S31500002470884203D0FFF704FA1F20B1E7F069806CA9
S3150000248000280BD0F069806C401EF169886405D184
S31500002490308B002801D062B600E062B600989FE754
S315000024A0F3B581B0054623480468208B002801D087
S315000024B00D20FEBD20496869884201D01F20F8E73B
S315000024C0E069806C002800D172B6E069806C401C1F
S315000024D0E1698864A86900280DDCE669029842680B
S315000024E001688068F263B163306431462846FFF7BD
S315000024F0FAFE074603E0A869401EA86100270E49B8
S315000025006869884203D0FFF7BBF91F20D1E7E0696D
S31500002510806C00280BD0E069806C401EE1698864FD
S3150000252005D1208B002801D062B600E062B638469D
S31500002530BFE7000024F0FF1F6D73776C2B040000CB
S315000025404A490868704710B50446204600F01CF951
S3150000255010BD4648016808897047444A11680881D9
S315000025607047424801680846FF30513070470020E6
S31500002570704770473D480168486D7047F8B53B485D
S3150000258004683B48208248206082082020600120A1
S3150000259060600220E0810F206081A081FF20713001
S315000025A00059002802D1012000F0EEF801F070FF7A
S315000025B026464836E661E08A6083E08AB084FF20DA
S315000025C05130005B00042B494018F0600320B060D6
S315000025D02046E830E8210851EC2108510021F0207E
S315000025E00153F22001533046E030FF2129310851D2
S315000025F0091D08510021FF2031300153801C015371
S315000026000027FF20713005590020009007E0E86898
S31500002610B84200D9EF680098401C00901C35286825
S31500002620002803D0134900988842F0D3C4200751EC
S3150000263021200001251810482860FF206930005924
S31500002640A8600EA0286111486860781CE8602046E2
S31500002650C830C8210851CC2108510021D02001538F
S31500002660D22001530121D4200151F8BD24F0FF1FCF
S31500002670FA290000FFFF0000030000805F6D7178FB
S315000026805F69646C655F7461736B000071180000AC
S31500002690F1B584B000260498446860480460604838
S315000026A0206060482060604820606048206001A883
S315000026B0206093218900204601F0B4FD24222046A3
S315000026C0FF305130049903F0B3FAFFF757FFFF20AC
S315000026D065300059002807D0FF2065300059039067
S315000026E0FF206130065902E00C2005B0F0BD3146EE
S315000026F0039801F0BCF803988019401E00090001F8
S31500002700E0634B4F3846973000090001029025469A
S3150000271048350298583868610298286138460F3063
S3150000272000090001A86143496869086001F0DEFEFE
S31500002730064601212046FF307530FFF72BFC0121AC
S315000027402046F430FFF726FC3B48FFF706FF2F2113
S315000027500F2001F0E2FD0646002E01D03046C4E708
S31500002760364801F001FD0020FEF740FA2146FF3110
S3150000277045310020FEF78BFA0020FEF71AFAFF21FA
S315000027803D3108510020B0E7FFF78DF800BF00BFCC
S31500002790FEE7FEB5214804680020FEF75FFA212017
S315000027A0000120188068FF216D31095900910190C0
S315000027B0E06900231A46C16821200001201801F0B3
S315000027C0BEF80646002E02D10420FFF7DDFF304694
S315000027D000F048FE0027FF207130055916E0287DDD
S315000027E0C007C00F10D0B900154A5158A86800910B
S315000027F00190AA69E0690023C168284601F09FF8A4
S315000028000646304600F02EFE1C357F1C2868002840
S31500002810E5D103F02DFD0020FEBD000024F0FF1FD2
S3150000282040730000487300004C73000060730000A2
S315000028301400002028F0FF1F2F42000000000000B7
S3150000284000F0FF1F0146002902D141200001704718
S31500002850002008608860F74848600020C8600420AF
S3150000286008610020F3E7F8B50446F3480668F56901
S31500002870002C02D141200001F8BDEE49E0688842F3
S3150000288002D041200001F7E7A07E802802D0412037
S315000028900001F1E7A06AA84202D041200001EBE75F
S315000028A0F069806C002800D172B6F069806C401C1B
S315000028B0F1698864E76A0020E062207A8007800F69
S315000028C003D00020A062A07639E0A08C002833D087
S315000028D0E5696868296801604860A08C401EA0848C
S315000028E0A562E869716A884201D9E86970620220C6
S315000028F0A860E86940686860686800682860686879
S315000029000560E869456001214902A068084210D0C7
S315000029102069296AC98988420BD22069E969C9896F
S31500002920884203D22846216900F036FDE06A401C41
S31500002930E06203F0A3FC02E00020A076A062002F74
S3150000294003D03946F06900F03BFDF069806C002841
S315000029500BD0F069806C401EF169886405D1308B1C
S31500002960002801D062B600E062B6002084E7F8B520
S315000029700646B1480768FF209D30C559002D00D195
S31500002980F8BDAC49E868884200D0F9E7FEF78BFF4E
S315000029902C680DE0A07E002809D0A06AB04206D1BE
S315000029A0F869A0622046FFF75EFF2C6800E0246805
S315000029B0AC42EFD1FEF764FF00BFE1E770B59E4879
S315000029C00568FF209D304059002801D0002070BDC9
S315000029D09A4C246064600020208160819548E06004
S315000029E0FEF761FFFF209D304059002803D0FEF717
S315000029F047FF0020EBE7FF209D3044519049FF2020
S31500002A00DD304151FEF73CFF0020E0E7014600299A
S31500002A1002D1412000017047864A4868904202D0A0
S31500002A2041200001F7E70020486000BFF3E7FEB54C
S31500002A30044681480568EE69288B002801D00D20E0
S31500002A40FEBD002C02D141200001F9E77949E0687A
S31500002A50884202D041200001F2E7A06AB04201D1CB
S31500002A607848EDE7F069C089019020461A30029057
S31500002A70207AC007C00F03D10221A06808426FD098
S31500002A80207AC007C00F03D001270020009002E083
S31500002A90676901200090FF210131A068084260D0DB
S31500002AA0E869806C002800D172B6E869806C401C29
S31500002AB0E969886439E000983F1AA06A006AC1890A
S31500002AC0019881420CD9A06AC069C18901988142E6
S31500002AD003D9A06A019900F05FFCE06A401CE0623D
S31500002AE0E869806C00280BD0E869806C401EE969B3
S31500002AF0886405D1288B002801D062B600E062B652
S31500002B0000F0D3FBE869806C002800D172B6E86952
S31500002B10806C401CE96988644649E068884204D0B4
S31500002B20FEF7AEFE412000018AE7002F03D002988F
S31500002B3000780028BFD1002F01D08020A076E86958
S31500002B40806C002820D0E869806C401EE9698864A2
S31500002B501AD1288B002801D062B615E062B613E0C0
S31500002B6019E00AE000983F1A00F09FFB3149E0683F
S31500002B70884202D04120000162E7002F04D002986B
S31500002B8003F063FC0028EDD1002F02D12D48C01EB2
S31500002B9056E7A6628AE0E869806C002800D172B622
S31500002BA0E869806C401CE96988640298007800280E
S31500002BB04CD0FF210131A068084212D0A06A006AF9
S31500002BC0C189019881420CD9A06AC069C18901985E
S31500002BD0814203D9A06A019900F0DEFBE06A401C3D
S31500002BE0E062706831680160486020461C30F0621F
S31500002BF00821A068084205D0314620461C3000F066
S31500002C00FFFB0AE0216A08683060216A0E60216ACB
S31500002C1071604660A08C401CA0840B48B06003F035
S31500002C2039FB0449E068884213D0FEF729FE4120AB
S31500002C30000105E77874756D24F0FF1FE0000020A1
S31500002C406F29000009040000230200008020A076FE
S31500002C50A662FF210131A068084217D00821A068AA
S31500002C60084213D120461C3000F0E6FB0746306AC6
S31500002C70C189B9420AD9F069C089B84203D939462F
S31500002C80304600F089FBE06A401CE062E869806C2F
S31500002C9000280BD0E869806C401EE969886405D17C
S31500002CA0288B002801D062B600E062B601214902F5
S31500002CB0A06808422AD0E869806C002800D172B664
S31500002CC0E869806C401CE96988642069316AC989B1
S31500002CD088420BD22069F169C989884203D23046FD
S31500002CE0216900F059FBE06A401CE062E869806CEB
S31500002CF000280BD0E869806C401EE969886405D11C
S31500002D00288B002801D062B600E062B6002097E664
S31500002D10F8B50546FE480668FF209D308059002814
S31500002D2001D11820F8BDFF209D308759F949F86870
S31500002D30884201D01A20F5E7F469A86AA04208D0B3
S31500002D402846FFF774FE00900098002801D00098EE
S31500002D50E8E70020E860286800280AD0FEF7A3FD0F
S31500002D6068682968016048603889401E3881FEF726
S31500002D7087FD22E0EC696068216801604860A88CE4
S31500002D80401EA88441210901204601F0A6F9FEF75C
S31500002D908AFDE069716A884201D9E06970620220A1
S31500002DA0A060E069406860606068006820606068F4
S31500002DB00460E0694460FEF763FDA88C0028D9D161
S31500002DC0F469FEF770FDE86A002803D02046E96A38
S31500002DD000F0F6FAFEF754FD03F050FA0020A1E7E2
S31500002DE00246002A01D0002902D141200001704785
S31500002DF0C84B5068984202D041200001F7E710699D
S31500002E0008600020F3E70246002A01D0002902D11B
S31500002E10412000017047BF4B5068984202D04120C4
S31500002E200001F7E7906808600020F3E70246002AF1
S31500002E3001D0002902D1412000017047B54B5068EE
S31500002E40984202D041200001F7E710680860002090
S31500002E50F3E70246002A01D0002902D141200001F1
S31500002E607047AC4B5068984202D041200001F7E70A
S31500002E70D06808600020F3E7F0B587B004460E4638
S31500002E80A34800680690002E03D101AE3046FFF736
S31500002E90D9FC002C03D14120000107B0F0BD9D49AB
S31500002EA07068884202D041200001F6E70698FF309C
S31500002EB09130C568002D06D1FFF780FD0090069879
S31500002EC0FF309130C5689349E868884201D01A20DE
S31500002ED0E3E7FEF7E8FC2F6807E0A74204D1FEF718
S31500002EE0CFFC41200001D8E73F68AF42F5D13169F8
S31500002EF030680843A0608748E060F0686061B068A9
S31500002F0020610020A076E062A06220461C30E061CD
S31500002F1020620021A184E1846968086820606968EC
S31500002F200C606968616044602889401C2881FEF74E
S31500002F30A7FC0020B1E70246002A02D14120000189
S31500002F407047744B5068984202D041200001F7E761
S31500002F50012908D0022906D0042904D0082902D064
S31500002F6041200001ECE711610020E9E710B50246B7
S31500002F7067480368002A02D14120000110BD654C54
S31500002F805068A04202D041200001F7E7C420C05893
S31500002F90884202D241200001F0E791600020EDE76F
S31500002FA00246002A02D1412000017047594B506861
S31500002FB0984202D041200001F7E7C81FF93807D030
S31500002FC0FF38013804D0002902D041200001ECE787
S31500002FD011600020E9E70246002A02D141200001E3
S31500002FE070474C4B5068984202D041200001F7E7E9
S31500002FF0D1600020F4E7F8B5054645480068009022
S31500003000002028600098FF309130C668002E01D15C
S315000030100020F8BD3F49F068884201D01A20F8E741
S31500003020FEF741FC2946304600F002F90746002F1C
S3150000303003D0FEF725FC3846EBE7346817E0354940
S31500003040E068884205D0FEF71BFC2C604120000199
S31500003050DFE7294620461C3000F0EAF80746002F35
S3150000306004D0FEF70DFC2C603846D2E72468B44243
S31500003070E5D1FEF705FC0020CBE770B505462448F0
S315000030800468002D02D14120000170BD2149E86885
S31500003090884202D041200001F7E7E069806C0028F1
S315000030A000D172B6E069806C401CE16988642846EC
S315000030B01A3003F0CAF9002818D0E069806C00289D
S315000030C00BD0E069806C401EE169886405D1208BD5
S315000030D0002801D062B600E062B6A86AE1698842BB
S315000030E001D10D48D1E70C48C01ECEE7E069A862C1
S315000030F0E069806C002812D0E069806C401EE169AE
S3150000310088640CD1208B002808D062B607E0000046
S3150000311024F0FF1F7874756D0904000062B6012162
S315000031204902A86808422BD0E669E069806C00284D
S3150000313000D172B6E069806C401CE1698864286938
S31500003140316AC98988420BD22869F169C9898842DE
S3150000315003D23046296900F01FF9E86A401CE8628C
S31500003160E069806C00280BD0E069806C401EE16944
S31500003170886405D1208B002801D062B600E062B6D3
S31500003180002082E7F8B504460D461646264807682D
S31500003190C420C059A84202D241200001F8BDFEF762
S315000031A082FB002C01D0002E04D1FEF769FB4120E2
S315000031B00001F3E71D49E068884204D0FEF760FB92
S315000031C041200001EAE7206930602561FEF758FBDF
S315000031D00020E3E70246002A01D0002902D141205F
S315000031E000017047114BD068984202D0412000017F
S315000031F0F7E7106908600020F3E710B50446002CD5
S3150000320005D14120000100F03EF9601E10BD0749BE
S31500003210E068884206D04120000100F034F9002021
S31500003220C043F3E7A08CF1E724F0FF1F7874756DB7
S31500003230F8B505460E46FEF736FB2889401C009079
S315000032402C682F4610E0AC4204D1FEF719FB34601F
S315000032501D20F8BD6068B84204D0FEF711FB34604B
S315000032601D20F6E7274624680098401E0090EAD104
S31500003270AC4204D0FEF704FB34601D20E9E7686821
S31500003280B84204D0FEF7FCFA34601D20E1E7FEF7F1
S31500003290F7FA0020DDE700000146002070470246ED
S315000032A06F480168C4204058704770B56C4805687F
S315000032B0EC69E869806C002800D172B6E869806C18
S315000032C0401CE96988646068216801604860E069BB
S315000032D0696A884201D9E06968620220A060E069F3
S315000032E04068606060680068206060680460E0694B
S315000032F0446002F0CFFFE869806C00280BD0E869D3
S31500003300806C401EE969886405D1288B002801D0AD
S3150000331062B600E062B670BDF8B504460E46504887
S3150000332005682F6AE069C089009030013F1AB889A4
S31500003330A084E761A068022827D16068216801603F
S315000033404860E069696A884201D9E06968620220DA
S31500003350A060E0694068606060680068206060683E
S315000033600460E0694460E869A04207D1A08C6883E4
S31500003370009886420FD902F08DFF0CE0A06C002861
S3150000338009D1204600F0A7FE05E0A06C002802D176
S31500003390204600F0A0FEF8BD70B504460D46304844
S315000033A006680121C903A06A0843A062606C401C3C
S315000033B0606429462046FFF7AFFF02F05FFF70BD4D
S315000033C070B504460D46264806680121C903A06A61
S315000033D0084214D0606CA84203D9606C401B60643C
S315000033E00DE0002060640121C903A06A8843A06241
S315000033F0206AC1892046FFF78FFF02F03FFF70BDAC
S31500003400F0B5024603680489661CCC69E58906E0C6
S31500003410DC69E489AC4200D904E01A461B68741ED4
S315000034202600F5D100BF14680C6011604A60616027
S315000034300489641C0481F0BD10B501460A680C8934
S31500003440631C0020C04306E0D469E489844201D2AB
S31500003450D469E08912685C1E2300F5D110BD000016
S3150000346024F0FF1F10B5FB4C2368C1694A685C6AEB
S315000034708C4200D25962022484604260146804605F
S315000034801060486010BD0246F24B19680B8B002B8A
S3150000349002D04B6BD86801E0CB69D86C002A01D00A
S315000034A0002807D10B8B002B02D04B6BDA6001E0B2
S315000034B0CB69DA64704770B505462E46E548046860
S315000034C0F068010CFF2051300059814203D01220D0
S315000034D0FFF7D9FF70BDE069806C002800D172B695
S315000034E0E069806C401CE1698864B068022805D1F7
S315000034F0FEF7C6F91120FFF7C6FFEBE73046FFF7E8
S31500003500B1FFE069806C00280BD0E069806C401E3A
S31500003510E169886405D1208B002801D062B600E0FD
S3150000352062B602F0ABFE00BFD4E7F8B50546C9485F
S315000035300468002D01D1E069F8BD606DA84202D192
S3150000354020464830F8E7E069806C002800D172B662
S31500003550E069806C401CE1698864C8200059064611
S315000035605C3ED020075B17E0F068A84211D1E06905
S31500003570806C00280BD0E069806C401EE16988648D
S3150000358005D1208B002801D062B600E062B6304635
S31500003590D2E7F06D06465C3E38467F1E0028E3D132
S315000035A0FEF76EF90020C7E7FEB50746A94805688D
S315000035B0002F0AD0380C0190FF205130405B81B2B9
S315000035C00198814201D01220FEBD3846FFF7ADFFBB
S315000035D00446002C03D028464830844201D11220EC
S315000035E0F2E72846F430FEF72BFEFEF75CF9A068FA
S315000035F0092807D1FEF744F92846F430FEF779FD8D
S315000036000020E1E7A068022807D1E869A04230D08F
S3150000361060682168016048602BE0FF210131A068E5
S31500003620084218D0A068084223D06068216801606B
S315000036304860FF203130405B401E81B2FF203130B0
S315000036404153FF210131A0688843A0600321A0688F
S315000036500843A0600DE001214902A068084208D095
S315000036606068216801604860E06A0089401EE16A7E
S31500003670088101218902A068084208D0606B216B8D
S3150000368001604860E06A0089401EE16A08810920FD
S31500003690A060FEF7F5F800260EE0B1002846FF30E0
S315000036A0D1304058002806D0B2002846FF30D1302D
S315000036B0815820468847761C102EEED3A08980B20A
S315000036C00090E86902900120C007E060D020405BCE
S315000036D0012806D10121D42041510021D820415191
S315000036E00BE0D42041590098814206D9D421009894
S315000036F04851206E5C38D8214851206EE16D01603A
S315000037004860D020405B401E81B2D02041532846FD
S31500003710F430FEF7EEFC029884420AD1FEF7C3F8B5
S315000037206068216801604860204600F03DFF02F0B5
S31500003730A2FD204600F038FF002045E710B50446FC
S3150000374000212046FFF730FF10BD70B541480568DF
S31500003750EC69606E002801D0606E80470020FFF79C
S31500003760EDFF70BDF8B506463A480568002E0AD04A
S31500003770300C0090FF205130405B81B200988142AE
S3150000378001D01220F8BD3046FFF7CFFE0446002CCC
S3150000379003D028464830844201D11220F2E7E86976
S315000037A0A0420BD1288B002805D0676902F058FE8D
S315000037B0294981614BE0FFF7C8FF48E0FEF773F83F
S315000037C067692548B863FF210131A068084218D00F
S315000037D0A068084232D06068216801604860FF2016
S315000037E03130405B401E81B2FF2031304153FF2112
S315000037F00131A0688843A0600321A0680843A06047
S315000038001CE001214902A068084209D060682168CD
S3150000381001604860E06A0089401EE16A08810DE0A7
S315000038200E49A0680840884208D1606B216B016090
S315000038304860E06A0089401EE16A0881207AC00774
S31500003840C00F02D02046FFF736FEFEF719F800201B
S3150000385098E7000024F0FF1F4B370000010400002A
S3150000386010B5044600212046FFF77CFF10BD8A08EC
S31500003870511C01E0F84A04C04A1E1100FAD17047F3
S31500003880FFB585B070200190F4480468D020005B35
S31500003890F349884202DB002009B0F0BD0699019881
S315000038A008600798002804D0079D2846019900F073
S315000038B0B9FCD420005B87B2D82000590490FF20C1
S315000038C05130005B00043843E8600498002803D1B7
S315000038D02046C830029002E004985C3002900299BB
S315000038E00868E86529465C31029A116002992966E2
S315000038F029465C314160D020005B401C81B2D0205B
S3150000390001532E4600BF0496049EF06D5C3803906A
S31500003910039E781C87B2002F00D101272146C831AB
S315000039200398884204D00398808980B2B842EAD0CE
S31500003930D82104980851D42007512846ACE7FFB592
S3150000394087B00546C54800680690E9680698C03005
S31500003950406881420BD92121090106984018854209
S3150000396005D00E20FFF78FFD00200BB0F0BD10989C
S31500003970002817D0119EFF200930864204D8022065
S31500003980FFF781FD0020F0E7002303A93046109AD7
S31500003990FFF776FF04460398361A0A98002817D0D0
S315000039A01C3E15E0AE68982E00D8982630460F309B
S315000039B00609360100230A98002802D030461C303A
S315000039C000E03046002203A90290FFF759FF0446A3
S315000039D00320A060E06E002802D0E06E049002E0B2
S315000039E00398201804900A9800280FD0049F049F7B
S315000039F038461C3004901C222946384602F018F935
S31500003A003D460121C90728680843286031460498C5
S31500003A10FFF72DFF0698006AE9680901401A05902C
S31500003A200598E0610598206205988089A0846869F8
S31500003A30A0621098002803D02021A06A0843A06243
S31500003A400599898909982B463246009101902046AE
S31500003A50049900F07BFD002800D186E7A56528685B
S31500003A6060650898206520467FE7FFB585B0074664
S31500003A700D467A480668002F12D000200390029562
S31500003A80FF207130845900E01C342068002802D0E1
S31500003A902068B842F8D12068002806D1002404E046
S31500003AA02C46A069029001200390002C05D110201D
S31500003AB0FFF7E9FC002009B0F0BD3046F430FEF710
S31500003AC0BFFB0899079801910090F069C1682046EC
S31500003AD0039B029AFFF733FF04903046F430FEF75B
S31500003AE008FB0498E7E7FFB581B00E465B4804681B
S31500003AF0F00FC00705D01520FFF7C5FC002005B064
S31500003B00F0BD0198002804D01320FFF7BCFC00206C
S31500003B10F5E70020009030460A9B049A0399FFF7C8
S31500003B20A4FF0546002D20D0EF68E069806C0028D0
S31500003B3000D172B6E069806C401CE1698864284651
S31500003B40FFF790FCE069806C00280BD0E069806C80
S31500003B50401EE169886405D1208B002801D062B639
S31500003B6000E062B602F08AFB00E000273D480068EC
S31500003B70401C3C4908603846C1E770B506463046E9
S31500003B80FFF7D3FC0446002C04D11220FFF77BFC80
S31500003B90002070BDA56E2846FBE7F8B507460D4622
S31500003BA03846FFF7C2FC0446002C04D11220FFF76A
S31500003BB06AFC0020F8BDA66EA5663046FAE770B529
S31500003BC006463046FFF7B1FC0446002C04D112200D
S31500003BD0FFF759FC002070BD656E2846FBE7F8B577
S31500003BE007460D463846FFF7A0FC0446002C04D1D4
S31500003BF01220FFF748FC0020F8BD666E6566304669
S31500003C00FAE7F8B50646154804682046F430FEF78C
S31500003C1017FBC820005905465C3DD020075B11E024
S31500003C20A96D32220869314602F03FF8002805D115
S31500003C302046F430FEF75DFAE868F8BD7F1EE86DB1
S31500003C4005465C3D002F01D0002DE9D12046F43019
S31500003C50FEF74FFA0020F0E76B61747324F0FF1F44
S31500003C60FEFF00002CF0FF1F70B505462846FFF743
S31500003C705CFC0446002C01D0A06D70BD0020FCE762
S31500003C8070B50646FA4805682846F430FEF7D8FAB5
S31500003C90FF20713044590BE02069002807D03222FA
S31500003CA03146206902F001F8002800D103E01C34F7
S31500003CB020680028F0D100BF2846F430FEF719FA34
S31500003CC0206870BD0146002900D17047C868FCE72E
S31500003CD070B505462846FFF728FC0446002C00D19F
S31500003CE070BDA06D0068FBE770B50446204600F085
S31500003CF0FFF90546E86C70BD10B5DD480468E0695B
S31500003D00FFF7F2FF10BD70B504462046FFF70DFC25
S31500003D1005462846FFF7E8FF70BDF8B504460D4690
S31500003D20284600F0E5F90646F76CF4643846F8BD17
S31500003D3070B50446CE4805682046E969FFF7EDFFF1
S31500003D400646304670BDF8B506460C46C8480768B4
S31500003D502046FFF7EAFB0546002D00D1F8BD2946AF
S31500003D603046FFF7DAFF00900098F7E770B5064691
S31500003D700C463046FFF7D9FB0546002D01D112202F
S31500003D8070BD286AC08920600020F9E7F7B582B0C7
S31500003D900E461746B648006801900198C030406844
S31500003DA0B04202D20C2005B0F0BD0298FFF7BDFB71
S31500003DB00446002C01D11220F5E7FDF774FD206AB8
S31500003DC0C08938600198006A009031010098401A55
S31500003DD02062606C002808D0E069C089B04208D92A
S31500003DE031462046FFF798FA03E031462046FFF7B2
S31500003DF093FAA049A068884212D1E06A0546103DB0
S31500003E000821E86808420BD06068216801604860B4
S31500003E10288B401E2883214628461030FFF7F0FAEB
S31500003E2002F02CFAFDF72CFD0020BCE7F7B588B0B0
S31500003E308F480568288B002802D00D200BB0F0BDF6
S31500003E40089800280BD00898000C0390FF205130EA
S31500003E50405B81B20398814201D01220EEE70898B8
S31500003E60FFF763FB0446002C01D11220E6E7284643
S31500003E704830844201D11220E0E72846F430FEF7AC
S31500003E80DFF9FDF710FDA068022807D1E869A04216
S31500003E9030D060682168016048602BE0FF21013165
S31500003EA0A068084218D0A068084223D0606821683C
S31500003EB001604860FF203130405B401E81B2FF2028
S31500003EC031304153FF210131A0688843A0600321AE
S31500003ED0A0680843A0600DE001214902A0680842DD
S31500003EE008D06068216801604860E06A0089401E69
S31500003EF0E16A088101218902A068084208D0606B46
S31500003F00216B01604860E06A0089401EE16A088111
S31500003F100920A060FDF7B4FC0020019012E0019892
S31500003F2081002846FF30D1304058002807D001983C
S31500003F3082002846FF30D1308158204688470198B4
S31500003F40401C019001981028E9D3EF692846F43007
S31500003F50FEF7CFF8A66D204600F0CAF8079009983C
S31500003F60002803D10798C06C049002E00998006805
S31500003F700490E06E05900598B04202D105981C3079
S31500003F800590B06802900298982801D8982002906F
S31500003F9002980F30000900010290286AF1680901B1
S31500003FA0401A06900698E061069820620698808975
S31500003FB0A0847069A062FDF776FCBC4204D16068FB
S31500003FC021680160486000BFA18C049833460091C7
S31500003FD001902046029A059900F0B8FA002801D10E
S31500003FE004202BE70A98002802D00320A06002E0F4
S31500003FF02046FFF737FA0020A064BC4201D102F048
S315000040003AF9686AF969884201D002F043F9FDF786
S3150000401037FC002012E770B596B004460D461646EA
S31500004020002069460870324629462046FFF7FEFE04
S3150000403016B070BD70B50E480568EC69FDF733FC27
S3150000404001210903A06A0843A062FDF719FC70BDAF
S3150000405070B507480568EC69FDF725FC01210903E1
S31500004060A06A8843A06202F009F9FDF709FC70BD59
S3150000407024F0FF1F2902000008B5002000901B480D
S315000040800168C86980696A46904201D9012008BD65
S315000040900020FCE715480168C869006D70471348A1
S315000040A00168088B002802D0486BC0687047C86951
S315000040B0C06CFBE70D480168088B002802D0486BEE
S315000040C00C307047C8694C30FBE708480168C8697E
S315000040D0C06870477047416970470246D06C002936
S315000040E001D0002800D1D1647047000024F0FF1FE2
S315000040F0014608695838704710B503480468E06BF4
S31500004100FCF794F910BD000024F0FF1F30B50246FD
S31500004110144B1868C169C3699B6C002B0BD0C3692B
S315000041209B6C5B1EC469A36405D1038B002B01D075
S3150000413062B600E062B68B680B2B07D00B238B6050
S31500004140CA624B680C681C60636000BFC3699B6CE5
S31500004150002B00D172B6C3699B6C5B1CC469A36457
S3150000416030BD000024F0FF1F014607225207ED2351
S315000041701B02D218906807225207D2189160704726
S3150000418007204007ED2109024018806870470000AB
S31500004190F1B584B022480468E069039072B6208BBA
S315000041A001282EDD606B029002980568002D02D171
S315000041B02020FEF7C8F96F68A06B019001980028CF
S315000041C015D0E06AB84212D8206BB8420FD33846F1
S315000041D0FDF793FB0646002E0CD03846FDF7CAFBCA
S315000041E0009002463846029B0499B04702E014202C
S315000041F0FEF7A9F9208B401E2083284602F009F914
S315000042000CE00398806E002805D00398826E416901
S315000042100498904702E00020FFF722FB05B0F0BDAE
S3150000422024F0FF1FF0B50246154614461046032932
S3150000423065D9D307DB0F05D0154600232B706D1CFF
S315000042402A46491E02231A4205D01446002323801B
S31500004250A41C2246891E10468E0911E0002308C0C0
S3150000426008C008C008C008C008C008C008C008C008
S3150000427008C008C008C008C008C008C008C0761E2C
S31500004280002EEBD18B061F0F3B0002F04CF91036C7
S3150000429033302D2A2724211E1B1815120F0C093620
S315000042A0002308C000BF002308C000BF002308C0C9
S315000042B000BF002308C000BF002308C000BF0023C2
S315000042C008C000BF002308C000BF002308C000BF0D
S315000042D0002308C000BF002308C000BF002308C099
S315000042E000BF002308C000BF002308C000BF002392
S315000042F008C000BF002308C000BF00BF024602235B
S31500004300194204D0144600232380A41C2246CB075E
S31500004310DB0F01D000231370F0BD70B505460E46C5
S3150000432031462846FDF7EEFB0446002C01D1FFF787
S31500004330E3FE204670BD0000F7B581B0019C2768FA
S3150000434064684E680D687D19744115605460019C5F
S31500004350A0688B680C4C2468FF3441346468009470
S31500004360009CE41A84420BD80025176854687E1C0A
S315000043706C4116605460009C1C1B2418946001E07C
S31500004380C4189460FFBD000024F0FF1FF8B5044672
S315000043900D480768FF204530C659A068B04211D3C2
S315000043A03146A06801F01AFC0546002122686068C3
S315000043B0521948412260606028467043A168081A75
S315000043C0A06000BFF8BD000024F0FF1FF8B5076825
S315000043D044684E680D687D1BB4411560546083685F
S315000043E08C680094009CA3420CD2274C2468FF34AE
S315000043F041346468E3180025176854687E1EAC4192
S3150000440016605460009C1C1B9460F8BDF7B584B020
S315000044100B46049C276864685E681D687D1BB44172
S3150000442000950194049CA068996888420CD2164CA9
S315000044302468FF344134646820180025009F019CDD
S315000044407E1EAC41009601940199CC0FE407009DB5
S315000044506D006D082C432046009CE40FE4074D00D8
S315000044606D082C432146002A01D000241460C40F95
S31500004470CC4206D0C40F054D6019002A01D0012494
S31500004480146007B0F0BD000024F0FF1FFFFFFF7FA0
S3150000449070B52B4C23681946FF315131CA68072A7B
S315000044A003D907220724CC6004E0002A02D10122A6
S315000044B00124CC60D40180252C40DC82002007E05A
S315000044C00024204D03263602AD198600AC51401C4F
S315000044D00828F5D31B4C8034002004E00025ED436A
S315000044E08600A551401C0028F8D070BD30B5144890
S315000044F0026800201062C4208058841C124923469A
S3150000450016E009604960CB81FF205D308058C018F5
S3150000451008D1FF205D308058C018C0018025284092
S31500004520888101E000208881106A8860116210315C
S3150000453018465B1E0028E4D1106A5062002030BD88
S3150000454024F0FF1F00E100E048F7FF1FFFB583B02E
S3150000455005460E46174601200190F019401E000937
S315000045600001029002980446583C029828613046A1
S315000045700F3000090001A8616C6158212046FFF741
S3150000458051FE084860630D98206206984068012134
S315000045900843A0630806E0630D98E064019807B03D
S315000045A0F0BD00004B37000070470000202800DDFA
S315000045B070470146C217D20E521852115201831A81
S315000045C001229A401F4B1B681A431E4B1A60C217E2
S315000045D0D20E521852115201831A01229A401A4BD6
S315000045E01B681A43184B1A6000BFE1E7202800DD5C
S315000045F070470146C217D20E521852115201831A41
S3150000460001229A40104B80331A6000BFF0E770B564
S3150000461000240025202800DD0124032900DD0124D3
S31500004620012C0ED00346C617B60FF618B605350E82
S31500004630054B032636029B19AE009A198B071B0EF3
S31500004640137070BD80E200E000E100E0F8B50446BA
S315000046500E4617468648844206D18648406BE114CA
S315000046600843844948630BE08348844207D1814864
S31500004670406B0121090308437E49486300E0F8BD09
S31500004680E0780C218843E0700020A07039017D227B
S31500004690D2007243104601F0B7FA85B2207841097C
S315000046A0490100911F20000228400012009908438A
S315000046B020706570E0780C210843E07000BFDEE7EB
S315000046C010B504466B48406B0121890208436949CD
S315000046D048636A4880696A4908400121890208439B
S315000046E0664988610846C069654908400121890212
S315000046F008436249C861E122520262495E48FFF7F7
S31500004700A5FF002C14D05C48C078202108435A49E4
S31500004710C870084680798871002221461E20FDF760
S315000047206EF90E20FFF742FF02210E20FFF76FFF02
S3150000473010BD00BF027980231A42FBD0C1717047B9
S3150000474070B506460C46002504E0615D3046FFF76D
S31500004750F0FF6D1C605D0028F7D170BD00BF4A49AF
S31500004760097940221142FAD04749C871704710B5FD
S315000047700346002403E0185DFFF7F0FF641C185D94
S315000047800028F8D110BD10B504463A48406B012107
S3150000479089020843374948633C4840683C49084019
S315000047A0012149020843394948600846806838496A
S315000047B00840012149020843344988603248C078DC
S315000047C0F72108403049C8700846C078FB210840E8
S315000047D02D49C87000208870887148712548406846
S315000047E0032189068843012189064018214948602A
S315000047F025480078E0210840234908703420487095
S315000048000846807AE0210840C01C1F498872084685
S31500004810C07AFD210840801C1B49C872002C17D0A5
S31500004820002221461C20FDF7EAF80C20FFF7BEFE09
S3150000483002210C20FFF7EBFE2020134908710846E1
S31500004840C078202108431049C870084680798871CD
S315000048500D48C078F721084008300B49C870084653
S31500004860C078FB210840001D0749C87010BD000034
S3150000487000B006400080044000C0064040D004401E
S31500004880FFFCFFFEC05D000000A006400090044053
S31500004890FFFAFFFEF8B507460026BCA000F0F4FAC2
S315000048A0C64804680DE00026656905E0F000295851
S315000048B0C3A000F0E9FA761CF00028580028F5D1CC
S315000048C02469002CEFD10020F8BDF7B582B00E4662
S315000048D017460298FEF729FE0446002C02D1401E18
S315000048E005B0F0BD20690190A56905E0B6492868C4
S315000048F0884200D003E02D1D01988542F6D300BF03
S315000049002069401B3860A1692069401A3060002088
S31500004910E6E7F0B587B001200690ACA0AEA1AFA344
S31500004920B0A200910190B1A1B1A000F0ADFAB6A07D
S3150000493000F0AAFAC2480568C820405904465C3C03
S31500004940D020465B18E004AA05A9E068FFF7BDFF82
S31500004950059A0499E068019202910090A06DC368DF
S3150000496002690698471C0146B6A0069700F08CFA25
S31500004970761EE06D04465C3C002E01D0002CE2D190
S3150000498007B0F0BDF8B504460D4616461F46012C85
S3150000499002D0022C0DD102E0FFF7BBFF0AE0B1A066
S315000049A0696801F06BF9002802D1AF4800F06CFA93
S315000049B000E000BF00BF0020F8BD08B5ABA000F0C6
S315000049C063FA6A46B249B3A001F050F86846008817
S315000049D0002803D1B0A000F057FA02E0B0A000F022
S315000049E053FA08BD10B58EB00446B0A3B1A22A2171
S315000049F002A8009401F058FD0DAB0022114602A852
S31500004A0000F0EDFF6846808E0A2811D006DC0028EB
S31500004A1009D0012808D009281AD115E00B280FD093
S31500004A200C2815D108E014E0A4A000F02DFA10E03F
S31500004A30A9A000F029FA0CE0AEA000F025FA08E0E3
S31500004A40B3A000F021FA04E0B8A000F01DFA00E0DF
S31500004A5000BF00BF0EB010BD8AB00024002701229F
S31500004A604021B948FDF7E4F80646002E00D103E0E0
S31500004A70FB21B6A000F0FFF900F0CAFEFFF79DFF8C
S31500004A802820FCF759FCB5A000F0FEF9C1A000F003
S31500004A90FBF961E000200346042201A90090AA4820
S31500004AA0FDF7D1F80646002E00D104E0FF210931BA
S31500004AB0A6A000F0E0F90198C5B2002F0AD10D2D8D
S31500004AC004D1C2A000F0E0F9012702E0C1A000F085
S31500004AD0DBF941E0032D0FD0082D02D00D2D25D195
S31500004AE010E0002C07DD601EC4B208232022194600
S31500004AF0C5A000F0C9F92DE00027C5A000F0C4F953
S31500004B00002427E0002C03D1B0A000F0BDF921E07D
S31500004B10002002A9085552A000F0B6F902A8FFF736
S31500004B2061FFAAA000F0B0F9002413E0402C07DBD7
S31500004B30BDA000F0A9F9C3A000F0A6F9002408E082
S31500004B402046611CCCB202A90D542946AFA000F044
S31500004B509BF900BF00BF00BF9CE738B50546BB48C0
S31500004B6000792021084210D0B848C0790090002270
S31500004B7069467548FDF71DF90446002C00D104E08E
S31500004B80FF215E3171A000F076F938BD2D2D2D2D57
S31500004B902D2D2D2D2D2D2D2D20737570706F72746A
S31500004BA020636F6D6D616E6473202D2D2D2D2D2D5F
S31500004BB02D2D2D2D2D2D0D0A0000000054F0FF1F68
S31500004BC025730D0A000000006B61747353746163F2
S31500004BD06B20757365640000494400005052494FCC
S31500004BE0000000005441534B000000004E554D009C
S31500004BF020252D347320252D313673253573253622
S31500004C0073253131730D0A002D2D2D2D2D2D2D2DB2
S31500004C102D2D2D2D2D2D2D2D2D2D2D2D2D2D2D2DBE
S31500004C202D2D2D2D2D2D2D2D2D2D2D2D2D2D2D2DAE
S31500004C302D2D2D2D2D2D2D2D2D2D0D0A0000000095
S31500004C4024F0FF1F205B2532645D20252D3136734D
S31500004C50253564253664205B2534642C2534645D53
S31500004C600D0A00002D680000747300004164646939
S31500004C706E6720617070207368656C6C20636F6D61
S31500004C806D616E64207461626C65202E2E2E20008C
S31500004C9030F0FF1F61707000646F6E652E0A0D00A4
S31500004CA06661696C65642E0A0D0000006170705FB4
S31500004CB00000000025732573000000004572726F26
S31500004CC0722C204E554C4C20706F696E74657220A4
S31500004CD07061737365642E004572726F722C206367
S31500004CE06F6D6D616E64204E4F5420666F756E64F5
S31500004CF02E0000004572726F722C2073656172631C
S31500004D0068696E6720636F6D6D616E642E000000CA
S31500004D104572726F722C20746F6F206D616E7920F0
S31500004D20617267756D656E74732E00004572726FE1
S31500004D30722C20657865637574696E6720636F6D84
S31500004D406D616E642E000000700400204150505CBE
S31500004D506170705F7368656C6C2E63000D0A3E3E71
S31500004D603E3E3E205479706520456E746572206B18
S31500004D70657920746F206163746976652073686550
S31500004D806C6C20636F6E736F6C652E203C3C3C3CF4
S31500004D903C0000000D0A3E3E3E3E3E202020547957
S31500004DA07065204354524C2B4320746F20657869FC
S31500004DB074207368656C6C20636F6E736F6C652E00
S31500004DC0202020203C3C3C3C3C0D0A000D0A46526B
S31500004DD0444D3E005479706520456E746572206BB3
S31500004DE0657920746F2061637469766520746869DB
S31500004DF073207368656C6C20636F6E736F6C652EC1
S31500004E002E2E0D0A00000000256325632563000091
S31500004E100D0A45786974207368656C6C20636F6E43
S31500004E20736F6C652E0D0A000D0A4572726F722C37
S31500004E3020636D6420697320746F6F206C6F6E67DA
S31500004E402E0D0A004652444D3E00000000A00640CA
S31500004E500FB408B503A8009040214F48009B029A62
S31500004E6001F038FB002000904B48FFF780FC01B0B2
S31500004E7008BC04B0184704460D462246294647A0FA
S31500004E80FFF7E6FF00BFFEE70FB438B54848FDF769
S31500004E90CEFD0446002C00D103E02A2145A0FFF7F1
S31500004EA0EAFF05A8009080214648009B049A01F07D
S31500004EB011FB002000904348FFF759FC3C48FDF7E2
S31500004EC0D2FC0446002C00D103E0322139A0FFF7C2
S31500004ED0D2FF38BC08BC04B01847F0B589B0064606
S31500004EE00F460024002500BF2CE02007000F0ED13E
S31500004EF0002C0CD0002505E001A9485DFFF72EFC2B
S31500004F00681CC5B2102DF7DB2FA0FFF730FC305D13
S31500004F101F2808DD305D7F2805DA305D2107090F7F
S31500004F2001AA505404E02E202107090F01AA50546B
S31500004F30335D26A2102105A801F0B6FA05A8FFF7F1
S31500004F4016FC641CBC42D0D32007000F01D11024EC
S31500004F5001E02407240F002505E001A9485DFFF7BD
S31500004F60FDFB681CC5B2A542F7D317A0FFF7FFFBF0
S31500004F7009B0F0BD10B500210D48FDF77DFF0446D0
S31500004F80002C00D103E083210AA0FFF774FF11482B
S31500004F90FFF7F9FB10BD0000B00500203D3D3E20A7
S31500004FA05B25645D202D205B25735D0D0A000000E6
S31500004FB0700600204150505C6170705F74726163CE
S31500004FC0652E6300F00500200D0A000025303258DA
S31500004FD0200000005B4B000010B50446FE48006A46
S31500004FE001218903084205D00846FB490862FB48AF
S31500004FF0FDF77FF810BD10B5F948F7498039886389
S31500005000F8484069012189038843F649486100222E
S31500005010F5492E20FCF7F3FC0446002C00D003E0F3
S315000050203A21F2A0FFF727FF1E20FFF7BFFA022161
S315000050301E20FFF7ECFA10BD10B502460B46002104
S31500005040101E01DB044600E044422246EC48824240
S3150000505000DD0246002114E08800EA4C2058904208
S315000050600DDB481C80002058904208DA012B02D143
S31500005070481CC0B210BDB420401AC0B2FAE7481CA2
S31500005080C1B25929E8DB02D1481CC0B2F2E7FF20C1
S31500005090F0E7F3B583B00C46002500200646074628
S315000050A000BF0CE00399485D00F0B4FF32463B4672
S315000050B00191009000F008FE06460F466D1CA542C1
S315000050C0F0DB204600F0A6FF02460B460191009059
S315000050D03046394600F012FF05B0F0BDF0B58BB092
S315000050E0054616461F46002400210891099100BF77
S315000050F022E0285D00F08EFF32463B46019100908B
S3150000510000F085FE05910490285D00F083FF32468D
S315000051103B460191009000F07AFE03910290059BB8
S31500005120049A00F083FE07910690099B089A00F006
S31500005130CBFD09910890641C10988442D9DB109924
S31500005140481E00F053FF02460B4607910690099948
S31500005150089800F0D3FE0BB0F0BDFEB50026002087
S31500005160A94A1060506000219160D16000BF38E00C
S31500005170A6498819A6490978FFF78BFFA24A03C2F8
S31500005180A3480078A04900900C684B689F4988198D
S315000051902246FFF7A3FF9C4AD1609060104600228A
S315000051A09C4B04684168204600F056FF16D296488C
S315000051B00022994B8468C168204600F039FF0DD261
S315000051C091480296C1688068019100908E490C68EA
S315000051D0224692A04B68FFF757FE06E08C480078FF
S315000051E036184B20C0008642C2DB00BFFEBDFEB5AE
S315000051F000270020944A1060506000219160D16021
S31500005200834800784B21C9000C1A38E07F490819F9
S315000052107F490978FFF73DFF8B4A03C27C48007837
S31500005220894900900D684B68784908192A46FFF7A6
S3150000523055FF854AD160906010460022754B05687F
S315000052404168284600F008FF16D27F498D68C96874
S315000052500022714B284600F0EBFE0DD27A480294EC
S31500005260C168806801910090774805682A464368BE
S3150000527076A0FFF709FE04E065480078241A002CA2
S31500005280C4DA00BFFEBDF0B5B9B000250024002089
S315000052900590049038A801230C22764900907648A0
S315000052A00068FBF7FFFD37903798002876D038A8BE
S315000052B0007840210840402870D107A8C023012269
S315000052C06C4900906C480068FBF7ECFD37900026AF
S315000052D062E006203446444307A9601C085C095D69
S315000052E00902084300B2069006988010069007A9A6
S315000052F0E01C085C07AAA11C515C0902084307B21E
S31500005300BF1007A9601D085C211D515C09020843F6
S3150000531005B2AD10002D02DB0120059001E0002052
S31500005320059028460599FFF787FE04903749534AAA
S3150000533012880498885451480088401C4F490880B8
S31500005340084600884B21C90088421ED100204B49DF
S31500005350088001A8FCF7C5F849A0019A0299FFF751
S3150000536093FDFFF7FAFE01A8FCF7BBF84CA0019AE3
S315000053700299FFF789FDFFF73AFF01A8FCF7B1F89C
S3150000538047A0019A0299FFF77FFD2B463A464CA0AB
S315000053900499FFF779FD761C202E9ADB39B0F0BD13
S315000053A01CB54DA0FFF770FD3C20FBF7C5FF52A0D2
S315000053B0FFF76AFD2F48FBF720FA2F49086001A87E
S315000053C001230D222B4900902B480068FBF76AFD4C
S315000053D00446002C9AE0000080900440200A002039
S315000053E003010A0000F00F40D94F00004150505C05
S315000053F06170705F6D6D61383435312E6300000069
S315000054009F0F0000C0730000980C00203C0A00208B
S315000054104EF0FF1F000024400000E03F66697273F3
S3150000542074206D65616E3D253038662C6669727331
S3150000543074207661723D2530386620706F733D2585
S3150000544064200D0A00000000A80C00206C61737433
S31500005450206D65616E3D253038662C6C6173742055
S315000054607661723D2530386620706F733D25642065
S315000054700D0A00004FF0FF1F48F0FF1F4CF0FF1F02
S3150000548068696768207469636B2025642C206C6FDB
S315000054907720666972737420737425640D0A0000A0
S315000054A068696768207469636B2025642C206C6FBB
S315000054B077206C61737420656E6425640D0A0000A4
S315000054C074696C742025642C793D253035642C7AFA
S315000054D03D253035640D0A004D4D413834353120B7
S315000054E0636F6E74726F6C207461736B207374617A
S315000054F072742E2E2E0D0A00696E6974204D4D4170
S31500005500383435312E2E2E0D0A00000005D068469F
S3150000551001796CA0FFF7B8FC02E06FA0FFF7B4FCBE
S315000055202820019001A801232A2271490090714880
S315000055300068FBF7E9FC0446002C03D12A216EA083
S31500005540FFF7A2FC0021019101A801232A22684944
S31500005550009068480068FBF7A5FC04466846007999
S31500005560282805D0684602792A216BA0FFF78CFC13
S315000055700021019101A801230E225D4900905D489A
S315000055800068FBF7C1FC6021019101A801230922F3
S315000055905749009057480068FBF7B6FC4021019137
S315000055A001A801232D225249009052480068FBF7BA
S315000055B0ABFC0446002C02D162A0FFF765FC01A8F3
S315000055C001232D224A4900904A480068FBF76AFCED
S315000055D0044668460079402805D0684602792D21A0
S315000055E060A0FFF751FC4020019001A801232E2264
S315000055F03F4900903F480068FBF786FC0446002CB4
S3150000560002D161A0FFF740FC01A801232E223849F0
S31500005610009038480068FBF745FC04466846007968
S31500005620402805D0684602792E214EA0FFF72CFCB3
S3150000563001A801232A222E4900902E480068FBF774
S3150000564031FC0446002C15D069460879012108432F
S31500005650019001A801232A222549009025480068C7
S31500005660FBF752FC0446002C0AD12A2122A0FFF7A0
S315000056700BFC05E0684602792E214AA0FFF704FCE0
S3150000568052A0FFF701FCFFF7B6FC00215A48FCF7D1
S3150000569081FC0546002D00D104E0FF216131574809
S315000056A0FFF7E9FB00BF5448FCF7CAFD0546002D8D
S315000056B000D104E0FF2167315048FFF7DCFBFFF71C
S315000056C0E2FDF0E74D4D41383435312049443A206A
S315000056D0307825580D0A000072656164204D4D41F1
S315000056E038343531204944206572726F720D0A00D4
S315000056F04FF0FF1F48F0FF1F7772697465204D4D0C
S315000057004138343531205B3078252E32585D20659E
S3150000571072726F720D0A00004D4D413834353120DA
S315000057205B3078252E32585D206572726F725B3061
S3150000573078252E325820213D20307831385D0D0AEB
S31500005740000000004461746120726561647920691B
S315000057506E74657272757074206572726F720D0A5E
S31500005760000000004D4D4138343531205B3078253E
S315000057702E32585D203D203078252E325820213D8E
S3150000578020307830410D0A00726F75746520697497
S3150000579020746F20494E5431206572726F720D0A63
S315000057A00000000050757420746865206465766991
S315000057B0636520696E20416374697665204D6F6468
S315000057C065206572726F720D0A0000004D4D4138FA
S315000057D034353120436F6E6669677572696E67206E
S315000057E04D6F74696F6E20446574656374696F6E7E
S315000057F0204F4B210D0A0000200A0020EC53000028
S31500005800F2A1097801700021C16001614161704710
S3150000581070B50020EE490860EE490860EE4C0025A0
S3150000582013E02046FFF7ECFF0020E060E94800683F
S315000058302061E8480068002802D0E6480068C46095
S31500005840E44804601834681C85B2052DE9DB0120A4
